{
  "contractName": "FanTokenFactory",
  "abi": [
    {
      "constant": true,
      "inputs": [
        {
          "name": "",
          "type": "uint256"
        }
      ],
      "name": "FanTokenOf",
      "outputs": [
        {
          "name": "",
          "type": "address"
        }
      ],
      "payable": false,
      "stateMutability": "view",
      "type": "function"
    },
    {
      "constant": true,
      "inputs": [
        {
          "name": "a",
          "type": "uint256"
        },
        {
          "name": "b",
          "type": "uint256"
        }
      ],
      "name": "safeSub",
      "outputs": [
        {
          "name": "",
          "type": "uint256"
        }
      ],
      "payable": false,
      "stateMutability": "view",
      "type": "function"
    },
    {
      "constant": true,
      "inputs": [
        {
          "name": "a",
          "type": "uint256"
        },
        {
          "name": "b",
          "type": "uint256"
        }
      ],
      "name": "safeMul",
      "outputs": [
        {
          "name": "",
          "type": "uint256"
        }
      ],
      "payable": false,
      "stateMutability": "view",
      "type": "function"
    },
    {
      "constant": true,
      "inputs": [
        {
          "name": "a",
          "type": "uint256"
        },
        {
          "name": "b",
          "type": "uint256"
        }
      ],
      "name": "safeAdd",
      "outputs": [
        {
          "name": "",
          "type": "uint256"
        }
      ],
      "payable": false,
      "stateMutability": "view",
      "type": "function"
    },
    {
      "inputs": [],
      "payable": false,
      "stateMutability": "nonpayable",
      "type": "constructor"
    },
    {
      "anonymous": false,
      "inputs": [
        {
          "indexed": false,
          "name": "_artistID",
          "type": "uint256"
        },
        {
          "indexed": false,
          "name": "tokenAddress",
          "type": "address"
        },
        {
          "indexed": false,
          "name": "_name",
          "type": "string"
        }
      ],
      "name": "fanTokenCreated",
      "type": "event"
    },
    {
      "anonymous": false,
      "inputs": [
        {
          "indexed": false,
          "name": "tokenBalance",
          "type": "uint256"
        },
        {
          "indexed": false,
          "name": "userAddress",
          "type": "address"
        }
      ],
      "name": "userTokenBalanceUpdated",
      "type": "event"
    },
    {
      "constant": false,
      "inputs": [
        {
          "name": "_appContract",
          "type": "address"
        }
      ],
      "name": "addAppContractAddress",
      "outputs": [],
      "payable": false,
      "stateMutability": "nonpayable",
      "type": "function"
    },
    {
      "constant": true,
      "inputs": [],
      "name": "getOwner",
      "outputs": [
        {
          "name": "",
          "type": "address"
        }
      ],
      "payable": false,
      "stateMutability": "view",
      "type": "function"
    },
    {
      "constant": true,
      "inputs": [],
      "name": "getAppAddress",
      "outputs": [
        {
          "name": "",
          "type": "address"
        }
      ],
      "payable": false,
      "stateMutability": "view",
      "type": "function"
    },
    {
      "constant": false,
      "inputs": [
        {
          "name": "_artistID",
          "type": "uint256"
        },
        {
          "name": "_name",
          "type": "string"
        },
        {
          "name": "_artistAddress",
          "type": "address"
        }
      ],
      "name": "createFanToken",
      "outputs": [
        {
          "name": "",
          "type": "address"
        }
      ],
      "payable": false,
      "stateMutability": "nonpayable",
      "type": "function"
    },
    {
      "constant": true,
      "inputs": [
        {
          "name": "artistID",
          "type": "uint256"
        }
      ],
      "name": "getTokenAddressOf",
      "outputs": [
        {
          "name": "",
          "type": "address"
        }
      ],
      "payable": false,
      "stateMutability": "view",
      "type": "function"
    },
    {
      "constant": true,
      "inputs": [],
      "name": "getAllTokensOwnedByUser",
      "outputs": [
        {
          "name": "",
          "type": "address[]"
        }
      ],
      "payable": false,
      "stateMutability": "view",
      "type": "function"
    }
  ],
  "bytecode": "0x608060405234801561001057600080fd5b50336000806101000a81548173ffffffffffffffffffffffffffffffffffffffff021916908373ffffffffffffffffffffffffffffffffffffffff160217905550613132806100606000396000f3006080604052600436106100a4576000357c0100000000000000000000000000000000000000000000000000000000900463ffffffff1680631d357ae0146100a95780633409f2d61461017c57806363f6a6da146101e95780638348f29814610240578063893d20e8146102ac578063a293d1e814610303578063d05c78da1461034e578063ddb552fa14610399578063e6cb901314610406578063ebab76d914610451575b600080fd5b3480156100b557600080fd5b5061013a60048036038101908080359060200190929190803590602001908201803590602001908080601f0160208091040260200160405190810160405280939291908181526020018383808284378201915050505050509192919290803573ffffffffffffffffffffffffffffffffffffffff169060200190929190505050610494565b604051808273ffffffffffffffffffffffffffffffffffffffff1673ffffffffffffffffffffffffffffffffffffffff16815260200191505060405180910390f35b34801561018857600080fd5b506101a7600480360381019080803590602001909291905050506107c3565b604051808273ffffffffffffffffffffffffffffffffffffffff1673ffffffffffffffffffffffffffffffffffffffff16815260200191505060405180910390f35b3480156101f557600080fd5b506101fe6107f6565b604051808273ffffffffffffffffffffffffffffffffffffffff1673ffffffffffffffffffffffffffffffffffffffff16815260200191505060405180910390f35b34801561024c57600080fd5b50610255610820565b6040518080602001828103825283818151815260200191508051906020019060200280838360005b8381101561029857808201518184015260208101905061027d565b505050509050019250505060405180910390f35b3480156102b857600080fd5b506102c1610ab4565b604051808273ffffffffffffffffffffffffffffffffffffffff1673ffffffffffffffffffffffffffffffffffffffff16815260200191505060405180910390f35b34801561030f57600080fd5b506103386004803603810190808035906020019092919080359060200190929190505050610add565b6040518082815260200191505060405180910390f35b34801561035a57600080fd5b506103836004803603810190808035906020019092919080359060200190929190505050610af6565b6040518082815260200191505060405180910390f35b3480156103a557600080fd5b506103c460048036038101908080359060200190929190505050610b29565b604051808273ffffffffffffffffffffffffffffffffffffffff1673ffffffffffffffffffffffffffffffffffffffff16815260200191505060405180910390f35b34801561041257600080fd5b5061043b6004803603810190808035906020019092919080359060200190929190505050610b66565b6040518082815260200191505060405180910390f35b34801561045d57600080fd5b50610492600480360381019080803573ffffffffffffffffffffffffffffffffffffffff169060200190929190505050610b84565b005b600082838584600160009054906101000a900473ffffffffffffffffffffffffffffffffffffffff166104c5610e28565b8080602001806020018681526020018573ffffffffffffffffffffffffffffffffffffffff1673ffffffffffffffffffffffffffffffffffffffff1681526020018473ffffffffffffffffffffffffffffffffffffffff1673ffffffffffffffffffffffffffffffffffffffff168152602001838103835288818151815260200191508051906020019080838360005b83811015610570578082015181840152602081019050610555565b50505050905090810190601f16801561059d5780820380516001836020036101000a031916815260200191505b50838103825287818151815260200191508051906020019080838360005b838110156105d65780820151818401526020810190506105bb565b50505050905090810190601f1680156106035780820380516001836020036101000a031916815260200191505b50975050505050505050604051809103906000f080158015610629573d6000803e3d6000fd5b506002600086815260200190815260200160002060006101000a81548173ffffffffffffffffffffffffffffffffffffffff021916908373ffffffffffffffffffffffffffffffffffffffff1602179055507f62675771191b9d1fbf7a671542238960f4babfd5900d9a2005163ae3bc9d1e32846002600087815260200190815260200160002060009054906101000a900473ffffffffffffffffffffffffffffffffffffffff1685604051808481526020018373ffffffffffffffffffffffffffffffffffffffff1673ffffffffffffffffffffffffffffffffffffffff16815260200180602001828103825283818151815260200191508051906020019080838360005b8381101561074a57808201518184015260208101905061072f565b50505050905090810190601f1680156107775780820380516001836020036101000a031916815260200191505b5094505050505060405180910390a16002600085815260200190815260200160002060009054906101000a900473ffffffffffffffffffffffffffffffffffffffff1690509392505050565b60026020528060005260406000206000915054906101000a900473ffffffffffffffffffffffffffffffffffffffff1681565b6000600160009054906101000a900473ffffffffffffffffffffffffffffffffffffffff16905090565b60608060008061082e610c23565b60405190808252806020026020018201604052801561085c5781602001602082028038833980820191505090505b50925060009150600090505b600160009054906101000a900473ffffffffffffffffffffffffffffffffffffffff1673ffffffffffffffffffffffffffffffffffffffff1663348c56746040518163ffffffff167c0100000000000000000000000000000000000000000000000000000000028152600401602060405180830381600087803b1580156108ee57600080fd5b505af1158015610902573d6000803e3d6000fd5b505050506040513d602081101561091857600080fd5b8101908080519060200190929190505050811015610aab5760006002600083815260200190815260200160002060009054906101000a900473ffffffffffffffffffffffffffffffffffffffff1673ffffffffffffffffffffffffffffffffffffffff166370a08231336040518263ffffffff167c0100000000000000000000000000000000000000000000000000000000028152600401808273ffffffffffffffffffffffffffffffffffffffff1673ffffffffffffffffffffffffffffffffffffffff168152602001915050602060405180830381600087803b158015610a0057600080fd5b505af1158015610a14573d6000803e3d6000fd5b505050506040513d6020811015610a2a57600080fd5b8101908080519060200190929190505050141515610a9e57610a4b81610b29565b8383815181101515610a5957fe5b9060200190602002019073ffffffffffffffffffffffffffffffffffffffff16908173ffffffffffffffffffffffffffffffffffffffff168152505081806001019250505b8080600101915050610868565b82935050505090565b60008060009054906101000a900473ffffffffffffffffffffffffffffffffffffffff16905090565b6000828211151515610aeb57fe5b818303905092915050565b60008082840290506000841480610b175750828482811515610b1457fe5b04145b1515610b1f57fe5b8091505092915050565b60006002600083815260200190815260200160002060009054906101000a900473ffffffffffffffffffffffffffffffffffffffff169050919050565b6000808284019050838110151515610b7a57fe5b8091505092915050565b6000809054906101000a900473ffffffffffffffffffffffffffffffffffffffff1673ffffffffffffffffffffffffffffffffffffffff163373ffffffffffffffffffffffffffffffffffffffff16141515610bdf57600080fd5b80600160006101000a81548173ffffffffffffffffffffffffffffffffffffffff021916908373ffffffffffffffffffffffffffffffffffffffff16021790555050565b6000806000809150600090505b600160009054906101000a900473ffffffffffffffffffffffffffffffffffffffff1673ffffffffffffffffffffffffffffffffffffffff1663348c56746040518163ffffffff167c0100000000000000000000000000000000000000000000000000000000028152600401602060405180830381600087803b158015610cb657600080fd5b505af1158015610cca573d6000803e3d6000fd5b505050506040513d6020811015610ce057600080fd5b8101908080519060200190929190505050811015610e205760006002600083815260200190815260200160002060009054906101000a900473ffffffffffffffffffffffffffffffffffffffff1673ffffffffffffffffffffffffffffffffffffffff166370a08231336040518263ffffffff167c0100000000000000000000000000000000000000000000000000000000028152600401808273ffffffffffffffffffffffffffffffffffffffff1673ffffffffffffffffffffffffffffffffffffffff168152602001915050602060405180830381600087803b158015610dc857600080fd5b505af1158015610ddc573d6000803e3d6000fd5b505050506040513d6020811015610df257600080fd5b8101908080519060200190929190505050141515610e135781806001019250505b8080600101915050610c30565b819250505090565b6040516122ce80610e3983390190560060806040526000600555600060065560006007553480156200002057600080fd5b50604051620022ce380380620022ce833981018060405281019080805182019291906020018051820192919060200180519060200190929190805190602001909291908051906020019092919050505080600160006101000a81548173ffffffffffffffffffffffffffffffffffffffff021916908373ffffffffffffffffffffffffffffffffffffffff1602179055508460029080519060200190620000c99291906200013d565b508360039080519060200190620000e29291906200013d565b50816000806101000a81548173ffffffffffffffffffffffffffffffffffffffff021916908373ffffffffffffffffffffffffffffffffffffffff1602179055508260048190555060006007819055505050505050620001ec565b828054600181600116156101000203166002900490600052602060002090601f016020900481019282601f106200018057805160ff1916838001178555620001b1565b82800160010185558215620001b1579182015b82811115620001b057825182559160200191906001019062000193565b5b509050620001c09190620001c4565b5090565b620001e991905b80821115620001e5576000816000905550600101620001cb565b5090565b90565b6120d280620001fc6000396000f30060806040526004361061011d576000357c0100000000000000000000000000000000000000000000000000000000900463ffffffff16806306fdde0314610122578063095ea7b3146101b257806318160ddd1461021757806323b872dd14610242578063394a2a22146102c75780635be5e3ec1461033357806370a08231146103745780637d68d54d146103cb5780638cfd96951461050857806395d89b41146105745780639a0040e414610604578063a293d1e814610753578063a715c9421461079e578063a9059cbb146107c9578063b29fef7d1461082e578063d05c78da146108d9578063d48bfca714610924578063dd62ed3e14610967578063e6cb9013146109de578063fbfe79e314610a29578063ff332ab714610a54575b600080fd5b34801561012e57600080fd5b50610137610a8d565b6040518080602001828103825283818151815260200191508051906020019080838360005b8381101561017757808201518184015260208101905061015c565b50505050905090810190601f1680156101a45780820380516001836020036101000a031916815260200191505b509250505060405180910390f35b3480156101be57600080fd5b506101fd600480360381019080803573ffffffffffffffffffffffffffffffffffffffff16906020019092919080359060200190929190505050610b2f565b604051808215151515815260200191505060405180910390f35b34801561022357600080fd5b5061022c610ba0565b6040518082815260200191505060405180910390f35b34801561024e57600080fd5b506102ad600480360381019080803573ffffffffffffffffffffffffffffffffffffffff169060200190929190803573ffffffffffffffffffffffffffffffffffffffff16906020019092919080359060200190929190505050610baa565b604051808215151515815260200191505060405180910390f35b3480156102d357600080fd5b506102dc610da3565b6040518080602001828103825283818151815260200191508051906020019060200280838360005b8381101561031f578082015181840152602081019050610304565b505050509050019250505060405180910390f35b34801561033f57600080fd5b50610372600480360381019080803590602001909291908035906020019092919080359060200190929190505050610e40565b005b34801561038057600080fd5b506103b5600480360381019080803573ffffffffffffffffffffffffffffffffffffffff16906020019092919050505061109d565b6040518082815260200191505060405180910390f35b3480156103d757600080fd5b506103e06110e6565b6040518080602001806020018673ffffffffffffffffffffffffffffffffffffffff1673ffffffffffffffffffffffffffffffffffffffff168152602001858152602001848152602001838103835288818151815260200191508051906020019080838360005b83811015610462578082015181840152602081019050610447565b50505050905090810190601f16801561048f5780820380516001836020036101000a031916815260200191505b50838103825287818151815260200191508051906020019080838360005b838110156104c85780820151818401526020810190506104ad565b50505050905090810190601f1680156104f55780820380516001836020036101000a031916815260200191505b5097505050505050505060405180910390f35b34801561051457600080fd5b5061051d611263565b6040518080602001828103825283818151815260200191508051906020019060200280838360005b83811015610560578082015181840152602081019050610545565b505050509050019250505060405180910390f35b34801561058057600080fd5b50610589611301565b6040518080602001828103825283818151815260200191508051906020019080838360005b838110156105c95780820151818401526020810190506105ae565b50505050905090810190601f1680156105f65780820380516001836020036101000a031916815260200191505b509250505060405180910390f35b34801561061057600080fd5b5061062f600480360381019080803590602001909291905050506113a3565b604051808060200180602001806020018781526020018681526020018515151515815260200184810384528a818151815260200191508051906020019080838360005b8381101561068d578082015181840152602081019050610672565b50505050905090810190601f1680156106ba5780820380516001836020036101000a031916815260200191505b50848103835289818151815260200191508051906020019060200280838360005b838110156106f65780820151818401526020810190506106db565b50505050905001848103825288818151815260200191508051906020019060200280838360005b8381101561073857808201518184015260208101905061071d565b50505050905001995050505050505050505060405180910390f35b34801561075f57600080fd5b50610788600480360381019080803590602001909291908035906020019092919050505061164b565b6040518082815260200191505060405180910390f35b3480156107aa57600080fd5b506107b3611664565b6040518082815260200191505060405180910390f35b3480156107d557600080fd5b50610814600480360381019080803573ffffffffffffffffffffffffffffffffffffffff169060200190929190803590602001909291905050506116a7565b604051808215151515815260200191505060405180910390f35b34801561083a57600080fd5b506108d7600480360381019080803590602001908201803590602001908080601f01602080910402602001604051908101604052809392919081815260200183838082843782019150505050505091929192908035600019169060200190929190803560001916906020019092919080356000191690602001909291908035600019169060200190929190803590602001909291905050506118b6565b005b3480156108e557600080fd5b5061090e6004803603810190808035906020019092919080359060200190929190505050611cb5565b6040518082815260200191505060405180910390f35b34801561093057600080fd5b50610965600480360381019080803573ffffffffffffffffffffffffffffffffffffffff169060200190929190505050611ce8565b005b34801561097357600080fd5b506109c8600480360381019080803573ffffffffffffffffffffffffffffffffffffffff169060200190929190803573ffffffffffffffffffffffffffffffffffffffff169060200190929190505050611e50565b6040518082815260200191505060405180910390f35b3480156109ea57600080fd5b50610a136004803603810190808035906020019092919080359060200190929190505050611e5b565b6040518082815260200191505060405180910390f35b348015610a3557600080fd5b50610a3e611e79565b6040518082815260200191505060405180910390f35b348015610a6057600080fd5b50610a69611ebd565b60405180848152602001838152602001828152602001935050505060405180910390f35b606060028054600181600116156101000203166002900480601f016020809104026020016040519081016040528092919081815260200182805460018160011615610100020316600290048015610b255780601f10610afa57610100808354040283529160200191610b25565b820191906000526020600020905b815481529060010190602001808311610b0857829003601f168201915b5050505050905090565b60008273ffffffffffffffffffffffffffffffffffffffff163373ffffffffffffffffffffffffffffffffffffffff167f8c5be1e5ebec7d5bd14f71427d1e84f3dd0314c0f7b2291e5b200ac8c7c3b925846040518082815260200191505060405180910390a36001905092915050565b6000600654905090565b600081610bb68561109d565b10151515610bc357600080fd5b610c0c600960008673ffffffffffffffffffffffffffffffffffffffff1673ffffffffffffffffffffffffffffffffffffffff168152602001908152602001600020548361164b565b600960008673ffffffffffffffffffffffffffffffffffffffff1673ffffffffffffffffffffffffffffffffffffffff16815260200190815260200160002081905550610c98600960008573ffffffffffffffffffffffffffffffffffffffff1673ffffffffffffffffffffffffffffffffffffffff1681526020019081526020016000205483611e5b565b600960008573ffffffffffffffffffffffffffffffffffffffff1673ffffffffffffffffffffffffffffffffffffffff168152602001908152602001600020819055506001600860008573ffffffffffffffffffffffffffffffffffffffff1673ffffffffffffffffffffffffffffffffffffffff16815260200190815260200160002060006101000a81548160ff0219169083151502179055508273ffffffffffffffffffffffffffffffffffffffff168473ffffffffffffffffffffffffffffffffffffffff167fddf252ad1be2c89b69c2b068fc378daa952ba7f163c4a11628f55a4df523b3ef846040518082815260200191505060405180910390a3600190509392505050565b6060600060606000809250610db6611664565b604051908082528060200260200182016040528015610de45781602001602082028038833980820191505090505b509150600090505b600754811015610e3757610dff81611f3c565b15610e2a57808284815181101515610e1357fe5b906020019060200201818152505082806001019350505b8080600101915050610dec565b81935050505090565b6000610e4b3361109d565b14151515610e5857600080fd5b80610e623361109d565b10151515610e6f57600080fd5b610e7883611f3c565b1515610e8357600080fd5b6007548311151515610e9457600080fd5b60008210158015610ea55750600482105b1515610eb057600080fd5b600a600084815260200190815260200160002060020182815481101515610ed357fe5b9060005260206000200160008154809291906001019190505550600a600084815260200190815260200160002060050160008154809291906001019190505550610f5c600960003373ffffffffffffffffffffffffffffffffffffffff1673ffffffffffffffffffffffffffffffffffffffff168152602001908152602001600020548261164b565b600960003373ffffffffffffffffffffffffffffffffffffffff1673ffffffffffffffffffffffffffffffffffffffff16815260200190815260200160002081905550610fab6005548261164b565b6005819055506001600a600085815260200190815260200160002060060160003373ffffffffffffffffffffffffffffffffffffffff1673ffffffffffffffffffffffffffffffffffffffff16815260200190815260200160002060006101000a81548160ff0219169083151502179055507f0e034b302d65a4bc190a62eb8cc1464a5f20c03b3b13e80cd798f2241372cef683838333604051808581526020018481526020018381526020018273ffffffffffffffffffffffffffffffffffffffff1673ffffffffffffffffffffffffffffffffffffffff16815260200194505050505060405180910390a1505050565b6000600960008373ffffffffffffffffffffffffffffffffffffffff1673ffffffffffffffffffffffffffffffffffffffff168152602001908152602001600020549050919050565b6060806000806000600260036000809054906101000a900473ffffffffffffffffffffffffffffffffffffffff16600454600754848054600181600116156101000203166002900480601f0160208091040260200160405190810160405280929190818152602001828054600181600116156101000203166002900480156111af5780601f10611184576101008083540402835291602001916111af565b820191906000526020600020905b81548152906001019060200180831161119257829003601f168201915b50505050509450838054600181600116156101000203166002900480601f01602080910402602001604051908101604052809291908181526020018280546001816001161561010002031660029004801561124b5780601f106112205761010080835404028352916020019161124b565b820191906000526020600020905b81548152906001019060200180831161122e57829003601f168201915b50505050509350945094509450945094509091929394565b6060600060606000809250611276611e79565b6040519080825280602002602001820160405280156112a45781602001602082028038833980820191505090505b509150600090505b6007548110156112f8576112bf81611f3c565b15156112eb578082848151811015156112d457fe5b906020019060200201818152505082806001019350505b80806001019150506112ac565b81935050505090565b606060038054600181600116156101000203166002900480601f0160208091040260200160405190810160405280929190818152602001828054600181600116156101000203166002900480156113995780601f1061136e57610100808354040283529160200191611399565b820191906000526020600020905b81548152906001019060200180831161137c57829003601f168201915b5050505050905090565b606080606060008060008060011515600860003373ffffffffffffffffffffffffffffffffffffffff1673ffffffffffffffffffffffffffffffffffffffff16815260200190815260200160002060009054906101000a900460ff161515148061145957506000809054906101000a900473ffffffffffffffffffffffffffffffffffffffff1673ffffffffffffffffffffffffffffffffffffffff163373ffffffffffffffffffffffffffffffffffffffff16145b151561146457600080fd5b61146d88611f3c565b1561147b5760019050611480565b600090505b600a6000898152602001908152602001600020600001600a60008a8152602001908152602001600020600101600a60008b8152602001908152602001600020600201600a60008c815260200190815260200160002060050154600a60008d81526020019081526020016000206004015485858054600181600116156101000203166002900480601f0160208091040260200160405190810160405280929190818152602001828054600181600116156101000203166002900480156115865780601f1061155b57610100808354040283529160200191611586565b820191906000526020600020905b81548152906001019060200180831161156957829003601f168201915b50505050509550848054806020026020016040519081016040528092919081815260200182805480156115dc57602002820191906000526020600020905b815460001916815260200190600101908083116115c4575b505050505094508380548060200260200160405190810160405280929190818152602001828054801561162e57602002820191906000526020600020905b81548152602001906001019080831161161a575b505050505093509650965096509650965096505091939550919395565b600082821115151561165957fe5b818303905092915050565b6000806000809150600090505b60075481101561169f5761168481611f3c565b156116925781806001019250505b8080600101915050611671565b819250505090565b6000806116b33361109d565b141515156116c057600080fd5b816116ca3361109d565b101515156116d757600080fd5b611720600960003373ffffffffffffffffffffffffffffffffffffffff1673ffffffffffffffffffffffffffffffffffffffff168152602001908152602001600020548361164b565b600960003373ffffffffffffffffffffffffffffffffffffffff1673ffffffffffffffffffffffffffffffffffffffff168152602001908152602001600020819055506117ac600960008573ffffffffffffffffffffffffffffffffffffffff1673ffffffffffffffffffffffffffffffffffffffff1681526020019081526020016000205483611e5b565b600960008573ffffffffffffffffffffffffffffffffffffffff1673ffffffffffffffffffffffffffffffffffffffff168152602001908152602001600020819055506001600860008573ffffffffffffffffffffffffffffffffffffffff1673ffffffffffffffffffffffffffffffffffffffff16815260200190815260200160002060006101000a81548160ff0219169083151502179055508273ffffffffffffffffffffffffffffffffffffffff163373ffffffffffffffffffffffffffffffffffffffff167fddf252ad1be2c89b69c2b068fc378daa952ba7f163c4a11628f55a4df523b3ef846040518082815260200191505060405180910390a36001905092915050565b6000809054906101000a900473ffffffffffffffffffffffffffffffffffffffff1673ffffffffffffffffffffffffffffffffffffffff163373ffffffffffffffffffffffffffffffffffffffff1614151561191157600080fd5b85600a60006007548152602001908152602001600020600001908051906020019061193d929190612001565b50600a60006007548152602001908152602001600020600101859080600181540180825580915050906001820390600052602060002001600090919290919091509060001916905550600a6000600754815260200190815260200160002060020160009080600181540180825580915050906001820390600052602060002001600090919290919091505550600a60006007548152602001908152602001600020600101849080600181540180825580915050906001820390600052602060002001600090919290919091509060001916905550600a6000600754815260200190815260200160002060020160009080600181540180825580915050906001820390600052602060002001600090919290919091505550600a60006007548152602001908152602001600020600101839080600181540180825580915050906001820390600052602060002001600090919290919091509060001916905550600a6000600754815260200190815260200160002060020160009080600181540180825580915050906001820390600052602060002001600090919290919091505550600a60006007548152602001908152602001600020600101829080600181540180825580915050906001820390600052602060002001600090919290919091509060001916905550600a60006007548152602001908152602001600020600201600090806001815401808255809150509060018203906000526020600020016000909192909190915055506000600a6000600754815260200190815260200160002060030160006101000a81548160ff02191690836001811115611b9f57fe5b021790555080600a60006007548152602001908152602001600020600401819055507f91f425e998d968cc86fb76301f7f0be8cbc7d30c937aeb2962c55b1fceec328f866007543360405180806020018481526020018373ffffffffffffffffffffffffffffffffffffffff1673ffffffffffffffffffffffffffffffffffffffff168152602001828103825285818151815260200191508051906020019080838360005b83811015611c5f578082015181840152602081019050611c44565b50505050905090810190601f168015611c8c5780820380516001836020036101000a031916815260200191505b5094505050505060405180910390a1600760008154809291906001019190505550505050505050565b60008082840290506000841480611cd65750828482811515611cd357fe5b04145b1515611cde57fe5b8091505092915050565b600160009054906101000a900473ffffffffffffffffffffffffffffffffffffffff1673ffffffffffffffffffffffffffffffffffffffff163373ffffffffffffffffffffffffffffffffffffffff16141515611d4457600080fd5b611d8e600960008373ffffffffffffffffffffffffffffffffffffffff1673ffffffffffffffffffffffffffffffffffffffff168152602001908152602001600020546001611e5b565b600960008373ffffffffffffffffffffffffffffffffffffffff1673ffffffffffffffffffffffffffffffffffffffff168152602001908152602001600020819055506006600081548092919060010191905055506005600081548092919060010191905055506001600860008373ffffffffffffffffffffffffffffffffffffffff1673ffffffffffffffffffffffffffffffffffffffff16815260200190815260200160002060006101000a81548160ff02191690831515021790555050565b600080905092915050565b6000808284019050838110151515611e6f57fe5b8091505092915050565b6000806000809150600090505b600754811015611eb557611e9981611f3c565b1515611ea85781806001019250505b8080600101915050611e86565b819250505090565b60008060008060009054906101000a900473ffffffffffffffffffffffffffffffffffffffff1673ffffffffffffffffffffffffffffffffffffffff163373ffffffffffffffffffffffffffffffffffffffff16141515611f1d57600080fd5b600654600554611f3160065460055461164b565b925092509250909192565b6000600a600083815260200190815260200160002060040154600a600084815260200190815260200160002060050154101515611fac576001600a600084815260200190815260200160002060030160006101000a81548160ff02191690836001811115611fa657fe5b02179055505b60006001811115611fb957fe5b600a600084815260200190815260200160002060030160009054906101000a900460ff166001811115611fe857fe5b1415611ff75760019050611ffc565b600090505b919050565b828054600181600116156101000203166002900490600052602060002090601f016020900481019282601f1061204257805160ff1916838001178555612070565b82800160010185558215612070579182015b8281111561206f578251825591602001919060010190612054565b5b50905061207d9190612081565b5090565b6120a391905b8082111561209f576000816000905550600101612087565b5090565b905600a165627a7a7230582059718c2eaadc708062a5a2efcef5da7f080e36d1e690b586c784fa2cea6aee270029a165627a7a7230582051156219d647b068170b504d3ea171247197d4c35186614f87ec973f4bc49b000029",
  "source": "pragma solidity ^0.4.23;\n\nimport \"./musicApp.sol\";\n// import \"./SafeMathLib.sol\";\n\n\ncontract FanTokenFactory is SafeMathLib {\n    address owner;\n    address appContract;\n    modifier onlyAppContract() {\n        require(msg.sender == appContract);\n        _;\n    }\n    modifier onlyOwner() {\n        require(msg.sender == owner);\n        _;\n    }\n\n    mapping (uint => address) public FanTokenOf; //Here, the uint is same as artist ID. THis is done to help maintain consistency in the IDs.\n    event fanTokenCreated(uint _artistID,address tokenAddress, string _name);\n    event userTokenBalanceUpdated(uint tokenBalance,address userAddress);\n    constructor () public {\n        owner = msg.sender;\n    }\n\n    function addAppContractAddress(address _appContract) public onlyOwner {\n        appContract = _appContract;\n    }\n    //Helper\n    function getOwner() public view returns(address) {\n        return owner;\n    }\n    //helper\n    function getAppAddress() public view returns (address) {\n        return appContract;\n    }\n    //We'll name the token as teh artist name as, to create custom token names we need to concatenate strings which consumes unecessary gas as it needss to be done manually. for reference:https://stackoverflow.com/questions/32157648/string-concatenation-in-solidity\n    function createFanToken(uint _artistID, string _name, address _artistAddress) public  returns(address){\n        //require(FanTokenOf[_artistID] == 0);\n        FanTokenOf[_artistID] = new FanToken(_name,_name, _artistID, _artistAddress, appContract);//TODO:SYmbol logic\n        fanTokenCreated(_artistID, FanTokenOf[_artistID], _name);\n        return FanTokenOf[_artistID];\n    }\n    // getAll balances for user along with addresses\n    function getTokenAddressOf(uint artistID) public view returns(address) {\n        return FanTokenOf[artistID];\n    }\n    // function updateUserBalanceOf(address _userAdr, uint _artistID, int _change) internal {\n    //     user[_userAdr].fanTokenBalanceOf[_artistID] = safeAdd(user[_userAdr].fanTokenBalanceOf[_artistID], _change);\n    //     userTokenBalanceUpdated(user[_userAdr].fanTokenBalanceOf[_artistID], msg.sender);\n    // }\n    function getNumberOfTokensOwnedByUser() internal returns(uint) {\n        uint j=0;\n        for (uint i = 0;i < musicApp(appContract).getTotalArtists(); i++) {\n            if(FanToken(FanTokenOf[i]).balanceOf(msg.sender) != 0) {\n                j++;\n            }\n        }\n        return j;\n    }\n    function getAllTokensOwnedByUser() public view returns(address[]) {\n        address[] memory tokenAddresses = new address[](getNumberOfTokensOwnedByUser());\n        uint j = 0;\n        for (uint i = 0;i < musicApp(appContract).getTotalArtists(); i++) {\n            if(FanToken(FanTokenOf[i]).balanceOf(msg.sender) != 0) {\n                tokenAddresses[j] = getTokenAddressOf(i);\n                j++;\n            }\n        }\n        return tokenAddresses;\n    }\n}",
  "sourcePath": "/Users/siddharthbarpanda/Desktop/spodify-v1/contracts/FanTokenFactory.sol",
  "compiler": {
    "name": "solc",
    "version": "0.4.24+commit.e67f0147.Emscripten.clang"
  },
  "schemaVersion": "2.0.1",
  "updatedAt": "2018-08-25T13:05:51.229Z"
}