{
  "contractName": "FanToken",
  "abi": [
    {
      "constant": true,
      "inputs": [
        {
          "name": "a",
          "type": "uint256"
        },
        {
          "name": "b",
          "type": "uint256"
        }
      ],
      "name": "safeSub",
      "outputs": [
        {
          "name": "",
          "type": "uint256"
        }
      ],
      "payable": false,
      "stateMutability": "view",
      "type": "function"
    },
    {
      "constant": true,
      "inputs": [
        {
          "name": "a",
          "type": "uint256"
        },
        {
          "name": "b",
          "type": "uint256"
        }
      ],
      "name": "safeMul",
      "outputs": [
        {
          "name": "",
          "type": "uint256"
        }
      ],
      "payable": false,
      "stateMutability": "view",
      "type": "function"
    },
    {
      "constant": true,
      "inputs": [
        {
          "name": "a",
          "type": "uint256"
        },
        {
          "name": "b",
          "type": "uint256"
        }
      ],
      "name": "safeAdd",
      "outputs": [
        {
          "name": "",
          "type": "uint256"
        }
      ],
      "payable": false,
      "stateMutability": "view",
      "type": "function"
    },
    {
      "inputs": [
        {
          "name": "_name",
          "type": "string"
        },
        {
          "name": "_symbol",
          "type": "string"
        },
        {
          "name": "_artistID",
          "type": "uint256"
        },
        {
          "name": "_artistAddress",
          "type": "address"
        },
        {
          "name": "_appAddress",
          "type": "address"
        }
      ],
      "payable": false,
      "stateMutability": "nonpayable",
      "type": "constructor"
    },
    {
      "anonymous": false,
      "inputs": [
        {
          "indexed": false,
          "name": "que",
          "type": "string"
        },
        {
          "indexed": false,
          "name": "pollID",
          "type": "uint256"
        },
        {
          "indexed": false,
          "name": "artistAddress",
          "type": "address"
        }
      ],
      "name": "pollCreated",
      "type": "event"
    },
    {
      "anonymous": false,
      "inputs": [
        {
          "indexed": false,
          "name": "pollID",
          "type": "uint256"
        },
        {
          "indexed": false,
          "name": "optionID",
          "type": "uint256"
        },
        {
          "indexed": false,
          "name": "tokens",
          "type": "uint256"
        },
        {
          "indexed": false,
          "name": "userAddress",
          "type": "address"
        }
      ],
      "name": "voteAdded",
      "type": "event"
    },
    {
      "anonymous": false,
      "inputs": [
        {
          "indexed": false,
          "name": "from",
          "type": "address"
        },
        {
          "indexed": false,
          "name": "to",
          "type": "address"
        },
        {
          "indexed": false,
          "name": "amount",
          "type": "uint256"
        }
      ],
      "name": "tokensTransferred",
      "type": "event"
    },
    {
      "anonymous": false,
      "inputs": [
        {
          "indexed": true,
          "name": "owner",
          "type": "address"
        },
        {
          "indexed": true,
          "name": "spender",
          "type": "address"
        },
        {
          "indexed": false,
          "name": "value",
          "type": "uint256"
        }
      ],
      "name": "Approval",
      "type": "event"
    },
    {
      "anonymous": false,
      "inputs": [
        {
          "indexed": true,
          "name": "from",
          "type": "address"
        },
        {
          "indexed": true,
          "name": "to",
          "type": "address"
        },
        {
          "indexed": false,
          "name": "value",
          "type": "uint256"
        }
      ],
      "name": "Transfer",
      "type": "event"
    },
    {
      "constant": true,
      "inputs": [],
      "name": "getAllTokenDetails",
      "outputs": [
        {
          "name": "",
          "type": "string"
        },
        {
          "name": "",
          "type": "string"
        },
        {
          "name": "",
          "type": "address"
        },
        {
          "name": "",
          "type": "uint256"
        },
        {
          "name": "",
          "type": "uint256"
        }
      ],
      "payable": false,
      "stateMutability": "view",
      "type": "function"
    },
    {
      "constant": false,
      "inputs": [
        {
          "name": "_que",
          "type": "string"
        },
        {
          "name": "_option1",
          "type": "bytes32"
        },
        {
          "name": "_option2",
          "type": "bytes32"
        },
        {
          "name": "_option3",
          "type": "bytes32"
        },
        {
          "name": "_option4",
          "type": "bytes32"
        },
        {
          "name": "_expiryVotes",
          "type": "uint256"
        }
      ],
      "name": "createPoll",
      "outputs": [],
      "payable": false,
      "stateMutability": "nonpayable",
      "type": "function"
    },
    {
      "constant": true,
      "inputs": [],
      "name": "getNumberOfLivePolls",
      "outputs": [
        {
          "name": "",
          "type": "uint256"
        }
      ],
      "payable": false,
      "stateMutability": "view",
      "type": "function"
    },
    {
      "constant": true,
      "inputs": [],
      "name": "getLivePolls",
      "outputs": [
        {
          "name": "",
          "type": "uint256[]"
        }
      ],
      "payable": false,
      "stateMutability": "view",
      "type": "function"
    },
    {
      "constant": true,
      "inputs": [],
      "name": "getNumberOfPastPolls",
      "outputs": [
        {
          "name": "",
          "type": "uint256"
        }
      ],
      "payable": false,
      "stateMutability": "view",
      "type": "function"
    },
    {
      "constant": true,
      "inputs": [],
      "name": "getPastPolls",
      "outputs": [
        {
          "name": "",
          "type": "uint256[]"
        }
      ],
      "payable": false,
      "stateMutability": "view",
      "type": "function"
    },
    {
      "constant": true,
      "inputs": [
        {
          "name": "id",
          "type": "uint256"
        }
      ],
      "name": "getPollDetails",
      "outputs": [
        {
          "name": "",
          "type": "string"
        },
        {
          "name": "",
          "type": "bytes32[]"
        },
        {
          "name": "",
          "type": "uint256[]"
        },
        {
          "name": "",
          "type": "uint256"
        },
        {
          "name": "",
          "type": "uint256"
        },
        {
          "name": "",
          "type": "bool"
        }
      ],
      "payable": false,
      "stateMutability": "view",
      "type": "function"
    },
    {
      "constant": true,
      "inputs": [],
      "name": "getTokenDetails",
      "outputs": [
        {
          "name": "",
          "type": "uint256"
        },
        {
          "name": "",
          "type": "uint256"
        },
        {
          "name": "",
          "type": "uint256"
        }
      ],
      "payable": false,
      "stateMutability": "view",
      "type": "function"
    },
    {
      "constant": true,
      "inputs": [
        {
          "name": "_adr",
          "type": "address"
        }
      ],
      "name": "balanceOf",
      "outputs": [
        {
          "name": "",
          "type": "uint256"
        }
      ],
      "payable": false,
      "stateMutability": "view",
      "type": "function"
    },
    {
      "constant": false,
      "inputs": [
        {
          "name": "_pollID",
          "type": "uint256"
        },
        {
          "name": "_optionID",
          "type": "uint256"
        },
        {
          "name": "_tokens",
          "type": "uint256"
        }
      ],
      "name": "castVote",
      "outputs": [],
      "payable": false,
      "stateMutability": "nonpayable",
      "type": "function"
    },
    {
      "constant": false,
      "inputs": [
        {
          "name": "to",
          "type": "address"
        },
        {
          "name": "_tokens",
          "type": "uint256"
        }
      ],
      "name": "transfer",
      "outputs": [
        {
          "name": "",
          "type": "bool"
        }
      ],
      "payable": false,
      "stateMutability": "nonpayable",
      "type": "function"
    },
    {
      "constant": false,
      "inputs": [
        {
          "name": "userAdr",
          "type": "address"
        }
      ],
      "name": "addToken",
      "outputs": [],
      "payable": false,
      "stateMutability": "nonpayable",
      "type": "function"
    },
    {
      "constant": true,
      "inputs": [],
      "name": "totalSupply",
      "outputs": [
        {
          "name": "",
          "type": "uint256"
        }
      ],
      "payable": false,
      "stateMutability": "view",
      "type": "function"
    },
    {
      "constant": true,
      "inputs": [
        {
          "name": "owner",
          "type": "address"
        },
        {
          "name": "spender",
          "type": "address"
        }
      ],
      "name": "allowance",
      "outputs": [
        {
          "name": "",
          "type": "uint256"
        }
      ],
      "payable": false,
      "stateMutability": "view",
      "type": "function"
    },
    {
      "constant": false,
      "inputs": [
        {
          "name": "from",
          "type": "address"
        },
        {
          "name": "to",
          "type": "address"
        },
        {
          "name": "value",
          "type": "uint256"
        }
      ],
      "name": "transferFrom",
      "outputs": [
        {
          "name": "",
          "type": "bool"
        }
      ],
      "payable": false,
      "stateMutability": "nonpayable",
      "type": "function"
    },
    {
      "constant": false,
      "inputs": [
        {
          "name": "spender",
          "type": "address"
        },
        {
          "name": "value",
          "type": "uint256"
        }
      ],
      "name": "approve",
      "outputs": [
        {
          "name": "",
          "type": "bool"
        }
      ],
      "payable": false,
      "stateMutability": "nonpayable",
      "type": "function"
    },
    {
      "constant": true,
      "inputs": [],
      "name": "name",
      "outputs": [
        {
          "name": "name",
          "type": "string"
        }
      ],
      "payable": false,
      "stateMutability": "view",
      "type": "function"
    },
    {
      "constant": true,
      "inputs": [],
      "name": "symbol",
      "outputs": [
        {
          "name": "symbol",
          "type": "string"
        }
      ],
      "payable": false,
      "stateMutability": "view",
      "type": "function"
    }
  ],
  "bytecode": "0x60806040526000600555600060065560006007553480156200002057600080fd5b50604051620022ce380380620022ce833981018060405281019080805182019291906020018051820192919060200180519060200190929190805190602001909291908051906020019092919050505080600160006101000a81548173ffffffffffffffffffffffffffffffffffffffff021916908373ffffffffffffffffffffffffffffffffffffffff1602179055508460029080519060200190620000c99291906200013d565b508360039080519060200190620000e29291906200013d565b50816000806101000a81548173ffffffffffffffffffffffffffffffffffffffff021916908373ffffffffffffffffffffffffffffffffffffffff1602179055508260048190555060006007819055505050505050620001ec565b828054600181600116156101000203166002900490600052602060002090601f016020900481019282601f106200018057805160ff1916838001178555620001b1565b82800160010185558215620001b1579182015b82811115620001b057825182559160200191906001019062000193565b5b509050620001c09190620001c4565b5090565b620001e991905b80821115620001e5576000816000905550600101620001cb565b5090565b90565b6120d280620001fc6000396000f30060806040526004361061011d576000357c0100000000000000000000000000000000000000000000000000000000900463ffffffff16806306fdde0314610122578063095ea7b3146101b257806318160ddd1461021757806323b872dd14610242578063394a2a22146102c75780635be5e3ec1461033357806370a08231146103745780637d68d54d146103cb5780638cfd96951461050857806395d89b41146105745780639a0040e414610604578063a293d1e814610753578063a715c9421461079e578063a9059cbb146107c9578063b29fef7d1461082e578063d05c78da146108d9578063d48bfca714610924578063dd62ed3e14610967578063e6cb9013146109de578063fbfe79e314610a29578063ff332ab714610a54575b600080fd5b34801561012e57600080fd5b50610137610a8d565b6040518080602001828103825283818151815260200191508051906020019080838360005b8381101561017757808201518184015260208101905061015c565b50505050905090810190601f1680156101a45780820380516001836020036101000a031916815260200191505b509250505060405180910390f35b3480156101be57600080fd5b506101fd600480360381019080803573ffffffffffffffffffffffffffffffffffffffff16906020019092919080359060200190929190505050610b2f565b604051808215151515815260200191505060405180910390f35b34801561022357600080fd5b5061022c610ba0565b6040518082815260200191505060405180910390f35b34801561024e57600080fd5b506102ad600480360381019080803573ffffffffffffffffffffffffffffffffffffffff169060200190929190803573ffffffffffffffffffffffffffffffffffffffff16906020019092919080359060200190929190505050610baa565b604051808215151515815260200191505060405180910390f35b3480156102d357600080fd5b506102dc610da3565b6040518080602001828103825283818151815260200191508051906020019060200280838360005b8381101561031f578082015181840152602081019050610304565b505050509050019250505060405180910390f35b34801561033f57600080fd5b50610372600480360381019080803590602001909291908035906020019092919080359060200190929190505050610e40565b005b34801561038057600080fd5b506103b5600480360381019080803573ffffffffffffffffffffffffffffffffffffffff16906020019092919050505061109d565b6040518082815260200191505060405180910390f35b3480156103d757600080fd5b506103e06110e6565b6040518080602001806020018673ffffffffffffffffffffffffffffffffffffffff1673ffffffffffffffffffffffffffffffffffffffff168152602001858152602001848152602001838103835288818151815260200191508051906020019080838360005b83811015610462578082015181840152602081019050610447565b50505050905090810190601f16801561048f5780820380516001836020036101000a031916815260200191505b50838103825287818151815260200191508051906020019080838360005b838110156104c85780820151818401526020810190506104ad565b50505050905090810190601f1680156104f55780820380516001836020036101000a031916815260200191505b5097505050505050505060405180910390f35b34801561051457600080fd5b5061051d611263565b6040518080602001828103825283818151815260200191508051906020019060200280838360005b83811015610560578082015181840152602081019050610545565b505050509050019250505060405180910390f35b34801561058057600080fd5b50610589611301565b6040518080602001828103825283818151815260200191508051906020019080838360005b838110156105c95780820151818401526020810190506105ae565b50505050905090810190601f1680156105f65780820380516001836020036101000a031916815260200191505b509250505060405180910390f35b34801561061057600080fd5b5061062f600480360381019080803590602001909291905050506113a3565b604051808060200180602001806020018781526020018681526020018515151515815260200184810384528a818151815260200191508051906020019080838360005b8381101561068d578082015181840152602081019050610672565b50505050905090810190601f1680156106ba5780820380516001836020036101000a031916815260200191505b50848103835289818151815260200191508051906020019060200280838360005b838110156106f65780820151818401526020810190506106db565b50505050905001848103825288818151815260200191508051906020019060200280838360005b8381101561073857808201518184015260208101905061071d565b50505050905001995050505050505050505060405180910390f35b34801561075f57600080fd5b50610788600480360381019080803590602001909291908035906020019092919050505061164b565b6040518082815260200191505060405180910390f35b3480156107aa57600080fd5b506107b3611664565b6040518082815260200191505060405180910390f35b3480156107d557600080fd5b50610814600480360381019080803573ffffffffffffffffffffffffffffffffffffffff169060200190929190803590602001909291905050506116a7565b604051808215151515815260200191505060405180910390f35b34801561083a57600080fd5b506108d7600480360381019080803590602001908201803590602001908080601f01602080910402602001604051908101604052809392919081815260200183838082843782019150505050505091929192908035600019169060200190929190803560001916906020019092919080356000191690602001909291908035600019169060200190929190803590602001909291905050506118b6565b005b3480156108e557600080fd5b5061090e6004803603810190808035906020019092919080359060200190929190505050611cb5565b6040518082815260200191505060405180910390f35b34801561093057600080fd5b50610965600480360381019080803573ffffffffffffffffffffffffffffffffffffffff169060200190929190505050611ce8565b005b34801561097357600080fd5b506109c8600480360381019080803573ffffffffffffffffffffffffffffffffffffffff169060200190929190803573ffffffffffffffffffffffffffffffffffffffff169060200190929190505050611e50565b6040518082815260200191505060405180910390f35b3480156109ea57600080fd5b50610a136004803603810190808035906020019092919080359060200190929190505050611e5b565b6040518082815260200191505060405180910390f35b348015610a3557600080fd5b50610a3e611e79565b6040518082815260200191505060405180910390f35b348015610a6057600080fd5b50610a69611ebd565b60405180848152602001838152602001828152602001935050505060405180910390f35b606060028054600181600116156101000203166002900480601f016020809104026020016040519081016040528092919081815260200182805460018160011615610100020316600290048015610b255780601f10610afa57610100808354040283529160200191610b25565b820191906000526020600020905b815481529060010190602001808311610b0857829003601f168201915b5050505050905090565b60008273ffffffffffffffffffffffffffffffffffffffff163373ffffffffffffffffffffffffffffffffffffffff167f8c5be1e5ebec7d5bd14f71427d1e84f3dd0314c0f7b2291e5b200ac8c7c3b925846040518082815260200191505060405180910390a36001905092915050565b6000600654905090565b600081610bb68561109d565b10151515610bc357600080fd5b610c0c600960008673ffffffffffffffffffffffffffffffffffffffff1673ffffffffffffffffffffffffffffffffffffffff168152602001908152602001600020548361164b565b600960008673ffffffffffffffffffffffffffffffffffffffff1673ffffffffffffffffffffffffffffffffffffffff16815260200190815260200160002081905550610c98600960008573ffffffffffffffffffffffffffffffffffffffff1673ffffffffffffffffffffffffffffffffffffffff1681526020019081526020016000205483611e5b565b600960008573ffffffffffffffffffffffffffffffffffffffff1673ffffffffffffffffffffffffffffffffffffffff168152602001908152602001600020819055506001600860008573ffffffffffffffffffffffffffffffffffffffff1673ffffffffffffffffffffffffffffffffffffffff16815260200190815260200160002060006101000a81548160ff0219169083151502179055508273ffffffffffffffffffffffffffffffffffffffff168473ffffffffffffffffffffffffffffffffffffffff167fddf252ad1be2c89b69c2b068fc378daa952ba7f163c4a11628f55a4df523b3ef846040518082815260200191505060405180910390a3600190509392505050565b6060600060606000809250610db6611664565b604051908082528060200260200182016040528015610de45781602001602082028038833980820191505090505b509150600090505b600754811015610e3757610dff81611f3c565b15610e2a57808284815181101515610e1357fe5b906020019060200201818152505082806001019350505b8080600101915050610dec565b81935050505090565b6000610e4b3361109d565b14151515610e5857600080fd5b80610e623361109d565b10151515610e6f57600080fd5b610e7883611f3c565b1515610e8357600080fd5b6007548311151515610e9457600080fd5b60008210158015610ea55750600482105b1515610eb057600080fd5b600a600084815260200190815260200160002060020182815481101515610ed357fe5b9060005260206000200160008154809291906001019190505550600a600084815260200190815260200160002060050160008154809291906001019190505550610f5c600960003373ffffffffffffffffffffffffffffffffffffffff1673ffffffffffffffffffffffffffffffffffffffff168152602001908152602001600020548261164b565b600960003373ffffffffffffffffffffffffffffffffffffffff1673ffffffffffffffffffffffffffffffffffffffff16815260200190815260200160002081905550610fab6005548261164b565b6005819055506001600a600085815260200190815260200160002060060160003373ffffffffffffffffffffffffffffffffffffffff1673ffffffffffffffffffffffffffffffffffffffff16815260200190815260200160002060006101000a81548160ff0219169083151502179055507f0e034b302d65a4bc190a62eb8cc1464a5f20c03b3b13e80cd798f2241372cef683838333604051808581526020018481526020018381526020018273ffffffffffffffffffffffffffffffffffffffff1673ffffffffffffffffffffffffffffffffffffffff16815260200194505050505060405180910390a1505050565b6000600960008373ffffffffffffffffffffffffffffffffffffffff1673ffffffffffffffffffffffffffffffffffffffff168152602001908152602001600020549050919050565b6060806000806000600260036000809054906101000a900473ffffffffffffffffffffffffffffffffffffffff16600454600754848054600181600116156101000203166002900480601f0160208091040260200160405190810160405280929190818152602001828054600181600116156101000203166002900480156111af5780601f10611184576101008083540402835291602001916111af565b820191906000526020600020905b81548152906001019060200180831161119257829003601f168201915b50505050509450838054600181600116156101000203166002900480601f01602080910402602001604051908101604052809291908181526020018280546001816001161561010002031660029004801561124b5780601f106112205761010080835404028352916020019161124b565b820191906000526020600020905b81548152906001019060200180831161122e57829003601f168201915b50505050509350945094509450945094509091929394565b6060600060606000809250611276611e79565b6040519080825280602002602001820160405280156112a45781602001602082028038833980820191505090505b509150600090505b6007548110156112f8576112bf81611f3c565b15156112eb578082848151811015156112d457fe5b906020019060200201818152505082806001019350505b80806001019150506112ac565b81935050505090565b606060038054600181600116156101000203166002900480601f0160208091040260200160405190810160405280929190818152602001828054600181600116156101000203166002900480156113995780601f1061136e57610100808354040283529160200191611399565b820191906000526020600020905b81548152906001019060200180831161137c57829003601f168201915b5050505050905090565b606080606060008060008060011515600860003373ffffffffffffffffffffffffffffffffffffffff1673ffffffffffffffffffffffffffffffffffffffff16815260200190815260200160002060009054906101000a900460ff161515148061145957506000809054906101000a900473ffffffffffffffffffffffffffffffffffffffff1673ffffffffffffffffffffffffffffffffffffffff163373ffffffffffffffffffffffffffffffffffffffff16145b151561146457600080fd5b61146d88611f3c565b1561147b5760019050611480565b600090505b600a6000898152602001908152602001600020600001600a60008a8152602001908152602001600020600101600a60008b8152602001908152602001600020600201600a60008c815260200190815260200160002060050154600a60008d81526020019081526020016000206004015485858054600181600116156101000203166002900480601f0160208091040260200160405190810160405280929190818152602001828054600181600116156101000203166002900480156115865780601f1061155b57610100808354040283529160200191611586565b820191906000526020600020905b81548152906001019060200180831161156957829003601f168201915b50505050509550848054806020026020016040519081016040528092919081815260200182805480156115dc57602002820191906000526020600020905b815460001916815260200190600101908083116115c4575b505050505094508380548060200260200160405190810160405280929190818152602001828054801561162e57602002820191906000526020600020905b81548152602001906001019080831161161a575b505050505093509650965096509650965096505091939550919395565b600082821115151561165957fe5b818303905092915050565b6000806000809150600090505b60075481101561169f5761168481611f3c565b156116925781806001019250505b8080600101915050611671565b819250505090565b6000806116b33361109d565b141515156116c057600080fd5b816116ca3361109d565b101515156116d757600080fd5b611720600960003373ffffffffffffffffffffffffffffffffffffffff1673ffffffffffffffffffffffffffffffffffffffff168152602001908152602001600020548361164b565b600960003373ffffffffffffffffffffffffffffffffffffffff1673ffffffffffffffffffffffffffffffffffffffff168152602001908152602001600020819055506117ac600960008573ffffffffffffffffffffffffffffffffffffffff1673ffffffffffffffffffffffffffffffffffffffff1681526020019081526020016000205483611e5b565b600960008573ffffffffffffffffffffffffffffffffffffffff1673ffffffffffffffffffffffffffffffffffffffff168152602001908152602001600020819055506001600860008573ffffffffffffffffffffffffffffffffffffffff1673ffffffffffffffffffffffffffffffffffffffff16815260200190815260200160002060006101000a81548160ff0219169083151502179055508273ffffffffffffffffffffffffffffffffffffffff163373ffffffffffffffffffffffffffffffffffffffff167fddf252ad1be2c89b69c2b068fc378daa952ba7f163c4a11628f55a4df523b3ef846040518082815260200191505060405180910390a36001905092915050565b6000809054906101000a900473ffffffffffffffffffffffffffffffffffffffff1673ffffffffffffffffffffffffffffffffffffffff163373ffffffffffffffffffffffffffffffffffffffff1614151561191157600080fd5b85600a60006007548152602001908152602001600020600001908051906020019061193d929190612001565b50600a60006007548152602001908152602001600020600101859080600181540180825580915050906001820390600052602060002001600090919290919091509060001916905550600a6000600754815260200190815260200160002060020160009080600181540180825580915050906001820390600052602060002001600090919290919091505550600a60006007548152602001908152602001600020600101849080600181540180825580915050906001820390600052602060002001600090919290919091509060001916905550600a6000600754815260200190815260200160002060020160009080600181540180825580915050906001820390600052602060002001600090919290919091505550600a60006007548152602001908152602001600020600101839080600181540180825580915050906001820390600052602060002001600090919290919091509060001916905550600a6000600754815260200190815260200160002060020160009080600181540180825580915050906001820390600052602060002001600090919290919091505550600a60006007548152602001908152602001600020600101829080600181540180825580915050906001820390600052602060002001600090919290919091509060001916905550600a60006007548152602001908152602001600020600201600090806001815401808255809150509060018203906000526020600020016000909192909190915055506000600a6000600754815260200190815260200160002060030160006101000a81548160ff02191690836001811115611b9f57fe5b021790555080600a60006007548152602001908152602001600020600401819055507f91f425e998d968cc86fb76301f7f0be8cbc7d30c937aeb2962c55b1fceec328f866007543360405180806020018481526020018373ffffffffffffffffffffffffffffffffffffffff1673ffffffffffffffffffffffffffffffffffffffff168152602001828103825285818151815260200191508051906020019080838360005b83811015611c5f578082015181840152602081019050611c44565b50505050905090810190601f168015611c8c5780820380516001836020036101000a031916815260200191505b5094505050505060405180910390a1600760008154809291906001019190505550505050505050565b60008082840290506000841480611cd65750828482811515611cd357fe5b04145b1515611cde57fe5b8091505092915050565b600160009054906101000a900473ffffffffffffffffffffffffffffffffffffffff1673ffffffffffffffffffffffffffffffffffffffff163373ffffffffffffffffffffffffffffffffffffffff16141515611d4457600080fd5b611d8e600960008373ffffffffffffffffffffffffffffffffffffffff1673ffffffffffffffffffffffffffffffffffffffff168152602001908152602001600020546001611e5b565b600960008373ffffffffffffffffffffffffffffffffffffffff1673ffffffffffffffffffffffffffffffffffffffff168152602001908152602001600020819055506006600081548092919060010191905055506005600081548092919060010191905055506001600860008373ffffffffffffffffffffffffffffffffffffffff1673ffffffffffffffffffffffffffffffffffffffff16815260200190815260200160002060006101000a81548160ff02191690831515021790555050565b600080905092915050565b6000808284019050838110151515611e6f57fe5b8091505092915050565b6000806000809150600090505b600754811015611eb557611e9981611f3c565b1515611ea85781806001019250505b8080600101915050611e86565b819250505090565b60008060008060009054906101000a900473ffffffffffffffffffffffffffffffffffffffff1673ffffffffffffffffffffffffffffffffffffffff163373ffffffffffffffffffffffffffffffffffffffff16141515611f1d57600080fd5b600654600554611f3160065460055461164b565b925092509250909192565b6000600a600083815260200190815260200160002060040154600a600084815260200190815260200160002060050154101515611fac576001600a600084815260200190815260200160002060030160006101000a81548160ff02191690836001811115611fa657fe5b02179055505b60006001811115611fb957fe5b600a600084815260200190815260200160002060030160009054906101000a900460ff166001811115611fe857fe5b1415611ff75760019050611ffc565b600090505b919050565b828054600181600116156101000203166002900490600052602060002090601f016020900481019282601f1061204257805160ff1916838001178555612070565b82800160010185558215612070579182015b8281111561206f578251825591602001919060010190612054565b5b50905061207d9190612081565b5090565b6120a391905b8082111561209f576000816000905550600101612087565b5090565b905600a165627a7a7230582059718c2eaadc708062a5a2efcef5da7f080e36d1e690b586c784fa2cea6aee270029",
  "source": "pragma solidity ^0.4.23;\n\n//import \"./fanTokenFactory.sol\";\n//import \"./musicApp.sol\";\nimport \"./SafeMathLib.sol\";\nimport \"./ERC20.sol\";\n\ncontract FanToken is SafeMathLib, ERC20 {\n    address ownerArtist;\n    address appAddress;\n    string Name;\n    string Symbol;\n    uint artistID;\n    uint currentSupply = 0;\n    uint TotalSupply = 0;\n    uint polls = 0;\n    mapping(address => bool) userBought;\n    mapping (address => uint) userBalanceOf;\n    mapping (uint => _poll) poll;\n    enum _pollStatus {LIVE, PAST} \n    struct _poll {\n        string question;\n        bytes32[] optionText;\n        uint[] optionVotes;\n        _pollStatus pollStatus;\n        uint expiryVotes;\n        uint votesPolled;\n        mapping(address => bool) userVoted;\n    }\n\n    constructor(string _name, string _symbol, uint _artistID, address _artistAddress, address _appAddress) public {\n        appAddress = _appAddress;\n        Name = _name;\n        Symbol = _symbol;\n        ownerArtist = _artistAddress;\n        artistID = _artistID;\n        polls = 0;\n    }\n    function getAllTokenDetails() public view returns(string,string, address, uint, uint) {\n        return (Name,Symbol, ownerArtist, artistID,polls);\n    }\n    modifier onlyOwnerArtist() {\n        require(msg.sender == ownerArtist);\n        _;\n    }\n\n    modifier ownsSongOrOwnerArtist() {\n        require(userBought[msg.sender] == true || msg.sender == ownerArtist);\n        _;\n    }\n\n    modifier userHasTokens() {\n        require(balanceOf(msg.sender) != 0);\n        _;\n    }\n\n    modifier onlyApp() {\n        require(msg.sender == appAddress);\n        _;\n    }\n\n    event pollCreated(string que,uint pollID, address artistAddress);\n    event voteAdded(uint pollID,uint optionID,uint tokens,address userAddress);\n    event tokensTransferred(address from,address to,uint amount);\n\n    //--//--//--//--//--//--//--//--//Artist Side//--//--//--//--//--//--//--//--//--//--//--\n    function createPoll(string _que, bytes32 _option1, bytes32 _option2, bytes32 _option3, bytes32 _option4, uint _expiryVotes) public onlyOwnerArtist {\n        poll[polls].question = _que;\n        poll[polls].optionText.push(_option1);\n         poll[polls].optionVotes.push(0);\n        poll[polls].optionText.push(_option2);\n         poll[polls].optionVotes.push(0);\n        poll[polls].optionText.push(_option3);\n         poll[polls].optionVotes.push(0);\n        poll[polls].optionText.push(_option4);\n         poll[polls].optionVotes.push(0);\n        poll[polls].pollStatus = _pollStatus.LIVE;\n        poll[polls].expiryVotes = _expiryVotes;\n        emit pollCreated(_que, polls, msg.sender);\n        polls++;\n    }\n\n    //List of all live polls\n    //Workaround to return dynamic sized arrays from solidity\n    function getNumberOfLivePolls() public view returns(uint) {\n        uint counter = 0;\n        for (uint i = 0; i < polls; i++) {\n           if(checkPollStatus(i)) {\n                counter++;\n            } \n        }\n        return counter;\n    }\n    function getLivePolls() public view returns(uint[]) {\n        uint j = 0;\n        uint[] memory livePolls = new uint[](getNumberOfLivePolls());\n        for (uint i = 0; i < polls; i++) {\n            if(checkPollStatus(i)) {\n                livePolls[j] = i;\n                j++;\n            }\n        }\n        return livePolls;\n    }    \n\n    function getNumberOfPastPolls() public view returns(uint) {\n        uint counter = 0;\n        for (uint i = 0; i < polls; i++) {\n           if(!checkPollStatus(i)) {\n                counter++;\n            } \n        }\n        return counter;\n    }\n\n    function getPastPolls() public view returns(uint[]) {\n        uint j = 0;\n        uint[] memory pastPolls = new uint[](getNumberOfPastPolls());\n        for (uint i = 0; i < polls; i++) {\n            if(!checkPollStatus(i)) {\n                pastPolls[j] = i;\n                j++;\n            }\n        }\n        return pastPolls;\n    }       \n    //Return variables of struct\n    function getPollDetails(uint id) public view ownsSongOrOwnerArtist returns(string, bytes32[], uint[],  uint,  uint, bool) {\n        bool pollActive;\n        if(checkPollStatus(id)) {\n            pollActive = true;\n        }\n        else {\n            pollActive = false;\n        }\n        // uint totalVotesPolled = ;\n        return (\n            poll[id].question,\n            poll[id].optionText,\n            poll[id].optionVotes,\n            poll[id].votesPolled,\n            poll[id].expiryVotes,\n            pollActive //Check if this works\n            );\n    } \n\n    //Artist can view how many users own how many tokens and also total tokens used\n\n    function getTokenDetails() public view onlyOwnerArtist returns(uint, uint, uint)  {\n        return (TotalSupply, currentSupply, safeSub(TotalSupply, currentSupply));\n    }\n\n    //--//--//--//--//--//--//--//--//User Side//--//--//--//--//--//--//--//--//--//--//--\n    function balanceOf(address _adr)  public view returns (uint) {\n        return userBalanceOf[_adr];\n    }\n\n    function castVote(uint _pollID, uint _optionID, uint _tokens) userHasTokens public {\n        require(balanceOf(msg.sender) >= _tokens);\n        require(checkPollStatus(_pollID));\n        require(_pollID <= polls);\n        require(_optionID >= 0 && _optionID < 4);   \n        poll[_pollID].optionVotes[_optionID]++;\n        poll[_pollID].votesPolled++;\n        userBalanceOf[msg.sender] = safeSub(userBalanceOf[msg.sender], _tokens);\n        //factory.updateUserBalanceOf(msg.sender, artistID, safeMul(-1,_tokens)); //Check For integrity\n        currentSupply = safeSub(currentSupply, _tokens);\n        poll[_pollID].userVoted[msg.sender] = true;\n        voteAdded(_pollID, _optionID, _tokens, msg.sender);\n    }   \n\n    //Check again\n    \n    function transfer(address to, uint _tokens) userHasTokens  public returns (bool) {\n        require(balanceOf(msg.sender) >= _tokens);\n        userBalanceOf[msg.sender] = safeSub(userBalanceOf[msg.sender], _tokens);\n        userBalanceOf[to] = safeAdd(userBalanceOf[to], _tokens);\n        userBought[to] = true;\n        // factory.updateUserBalanceOf(msg.sender, artistID, safeMul(-1,_tokens));\n        // factory.updateUserBalanceOf(to, artistID, _tokens);\n        emit Transfer(msg.sender, to, _tokens);\n        return true;\n    }\n    \n    function checkPollStatus(uint _pollID) internal returns (bool status) {\n        if(poll[_pollID].votesPolled >= poll[_pollID].expiryVotes) {\n            poll[_pollID].pollStatus = _pollStatus.PAST;\n        }\n        if(poll[_pollID].pollStatus == _pollStatus.LIVE) {\n            return true;\n        }\n        else {\n            return false;\n        }\n    }\n\n    function addToken(address userAdr) public onlyApp {\n        userBalanceOf[userAdr] = safeAdd(userBalanceOf[userAdr], 1);\n        TotalSupply++;\n        currentSupply++;\n        userBought[userAdr] = true;\n    }\n\n    //ERC20 compliance functions  \n    function totalSupply() public view returns (uint256) {\n        return TotalSupply;\n    }\n    function allowance(address owner, address spender) public view returns (uint256) {\n        return 0;\n    }\n    function transferFrom(address from, address to, uint256 value) public returns (bool) {\n        require(balanceOf(from) >= value);\n        userBalanceOf[from] = safeSub(userBalanceOf[from], value);\n        userBalanceOf[to] = safeAdd(userBalanceOf[to], value);\n        userBought[to] = true;\n        // factory.updateUserBalanceOf(msg.sender, artistID, safeMul(-1,_tokens));\n        // factory.updateUserBalanceOf(to, artistID, _tokens);\n        emit Transfer(from, to, value);\n        return true;\n    }\n    function approve(address spender, uint256 value) public returns (bool) {\n        emit Approval(msg.sender, spender, value);\n        return true;\n    }\n    function name() public view returns (string name) {\n        return Name;\n    }\n    function symbol() view returns (string symbol) {\n        return Symbol;\n    }\n    //helper functions\n}",
  "sourcePath": "/Users/siddharthbarpanda/Desktop/spodify-v1/contracts/FanToken.sol",
  "compiler": {
    "name": "solc",
    "version": "0.4.24+commit.e67f0147.Emscripten.clang"
  },
  "schemaVersion": "2.0.1",
  "updatedAt": "2018-08-25T13:05:51.283Z"
}