{
  "contractName": "musicApp",
  "abi": [
    {
      "constant": true,
      "inputs": [
        {
          "name": "a",
          "type": "uint256"
        },
        {
          "name": "b",
          "type": "uint256"
        }
      ],
      "name": "safeSub",
      "outputs": [
        {
          "name": "",
          "type": "uint256"
        }
      ],
      "payable": false,
      "stateMutability": "view",
      "type": "function"
    },
    {
      "constant": true,
      "inputs": [
        {
          "name": "a",
          "type": "uint256"
        },
        {
          "name": "b",
          "type": "uint256"
        }
      ],
      "name": "safeMul",
      "outputs": [
        {
          "name": "",
          "type": "uint256"
        }
      ],
      "payable": false,
      "stateMutability": "view",
      "type": "function"
    },
    {
      "constant": true,
      "inputs": [
        {
          "name": "a",
          "type": "uint256"
        },
        {
          "name": "b",
          "type": "uint256"
        }
      ],
      "name": "safeAdd",
      "outputs": [
        {
          "name": "",
          "type": "uint256"
        }
      ],
      "payable": false,
      "stateMutability": "view",
      "type": "function"
    },
    {
      "inputs": [
        {
          "name": "factoryAddress",
          "type": "address"
        }
      ],
      "payable": false,
      "stateMutability": "nonpayable",
      "type": "constructor"
    },
    {
      "payable": true,
      "stateMutability": "payable",
      "type": "fallback"
    },
    {
      "anonymous": false,
      "inputs": [
        {
          "indexed": false,
          "name": "_name",
          "type": "string"
        },
        {
          "indexed": false,
          "name": "artistID",
          "type": "uint256"
        }
      ],
      "name": "singleArtistRegistered",
      "type": "event"
    },
    {
      "anonymous": false,
      "inputs": [
        {
          "indexed": false,
          "name": "_title",
          "type": "string"
        },
        {
          "indexed": false,
          "name": "_priceInD",
          "type": "uint256"
        },
        {
          "indexed": false,
          "name": "songID",
          "type": "uint256"
        }
      ],
      "name": "songAdded",
      "type": "event"
    },
    {
      "anonymous": false,
      "inputs": [
        {
          "indexed": false,
          "name": "userAddress",
          "type": "address"
        },
        {
          "indexed": false,
          "name": "userID",
          "type": "uint256"
        }
      ],
      "name": "userRegistered",
      "type": "event"
    },
    {
      "anonymous": false,
      "inputs": [
        {
          "indexed": false,
          "name": "_songID",
          "type": "uint256"
        },
        {
          "indexed": false,
          "name": "userAddress",
          "type": "address"
        }
      ],
      "name": "songBuySuccessful",
      "type": "event"
    },
    {
      "constant": false,
      "inputs": [
        {
          "name": "_name",
          "type": "string"
        },
        {
          "name": "_desc",
          "type": "string"
        },
        {
          "name": "_pictureHash",
          "type": "string"
        }
      ],
      "name": "registerSingleArtist",
      "outputs": [
        {
          "name": "tokenAddress",
          "type": "address"
        }
      ],
      "payable": false,
      "stateMutability": "nonpayable",
      "type": "function"
    },
    {
      "constant": false,
      "inputs": [
        {
          "name": "_songHash",
          "type": "string"
        },
        {
          "name": "_title",
          "type": "string"
        },
        {
          "name": "_priceInD",
          "type": "uint256"
        },
        {
          "name": "_songArtHash",
          "type": "string"
        }
      ],
      "name": "addSong",
      "outputs": [],
      "payable": false,
      "stateMutability": "nonpayable",
      "type": "function"
    },
    {
      "constant": true,
      "inputs": [],
      "name": "checkTotalRevenues",
      "outputs": [
        {
          "name": "",
          "type": "uint256"
        }
      ],
      "payable": false,
      "stateMutability": "view",
      "type": "function"
    },
    {
      "constant": true,
      "inputs": [
        {
          "name": "_songID",
          "type": "uint256"
        }
      ],
      "name": "checkSongRevenues",
      "outputs": [
        {
          "name": "",
          "type": "uint256"
        }
      ],
      "payable": false,
      "stateMutability": "view",
      "type": "function"
    },
    {
      "constant": true,
      "inputs": [
        {
          "name": "n",
          "type": "uint256"
        },
        {
          "name": "_songID",
          "type": "uint256"
        }
      ],
      "name": "checkSanity",
      "outputs": [
        {
          "name": "",
          "type": "bool"
        }
      ],
      "payable": false,
      "stateMutability": "view",
      "type": "function"
    },
    {
      "constant": false,
      "inputs": [
        {
          "name": "_dollars",
          "type": "uint256"
        }
      ],
      "name": "dollarToWei",
      "outputs": [
        {
          "name": "",
          "type": "uint256"
        }
      ],
      "payable": false,
      "stateMutability": "nonpayable",
      "type": "function"
    },
    {
      "constant": true,
      "inputs": [
        {
          "name": "adr",
          "type": "address"
        }
      ],
      "name": "checkIfNewUser",
      "outputs": [
        {
          "name": "",
          "type": "bool"
        }
      ],
      "payable": false,
      "stateMutability": "view",
      "type": "function"
    },
    {
      "constant": false,
      "inputs": [],
      "name": "registerUser",
      "outputs": [],
      "payable": false,
      "stateMutability": "nonpayable",
      "type": "function"
    },
    {
      "constant": false,
      "inputs": [
        {
          "name": "_songID",
          "type": "uint256"
        }
      ],
      "name": "initiateBuy",
      "outputs": [],
      "payable": false,
      "stateMutability": "nonpayable",
      "type": "function"
    },
    {
      "constant": true,
      "inputs": [
        {
          "name": "_songID",
          "type": "uint256"
        }
      ],
      "name": "getLatestWeiPrice",
      "outputs": [
        {
          "name": "",
          "type": "uint256"
        }
      ],
      "payable": false,
      "stateMutability": "view",
      "type": "function"
    },
    {
      "constant": false,
      "inputs": [
        {
          "name": "_songID",
          "type": "uint256"
        }
      ],
      "name": "buySong",
      "outputs": [],
      "payable": true,
      "stateMutability": "payable",
      "type": "function"
    },
    {
      "constant": true,
      "inputs": [
        {
          "name": "_songID",
          "type": "uint256"
        }
      ],
      "name": "getSongHashByID",
      "outputs": [
        {
          "name": "",
          "type": "string"
        }
      ],
      "payable": false,
      "stateMutability": "view",
      "type": "function"
    },
    {
      "constant": true,
      "inputs": [
        {
          "name": "_songID",
          "type": "uint256"
        }
      ],
      "name": "getSongDetails",
      "outputs": [
        {
          "name": "",
          "type": "string"
        },
        {
          "name": "",
          "type": "string"
        },
        {
          "name": "",
          "type": "string"
        },
        {
          "name": "",
          "type": "string"
        }
      ],
      "payable": false,
      "stateMutability": "view",
      "type": "function"
    },
    {
      "constant": true,
      "inputs": [],
      "name": "getUserSongList",
      "outputs": [
        {
          "name": "",
          "type": "uint256[]"
        }
      ],
      "payable": false,
      "stateMutability": "view",
      "type": "function"
    },
    {
      "constant": true,
      "inputs": [],
      "name": "getStoreSongList",
      "outputs": [
        {
          "name": "",
          "type": "uint256[]"
        }
      ],
      "payable": false,
      "stateMutability": "view",
      "type": "function"
    },
    {
      "constant": true,
      "inputs": [
        {
          "name": "_songId",
          "type": "uint256"
        }
      ],
      "name": "userOwns",
      "outputs": [
        {
          "name": "",
          "type": "bool"
        }
      ],
      "payable": false,
      "stateMutability": "view",
      "type": "function"
    },
    {
      "constant": true,
      "inputs": [
        {
          "name": "_songID",
          "type": "uint256"
        }
      ],
      "name": "getSongStoreDetails",
      "outputs": [
        {
          "name": "",
          "type": "string"
        },
        {
          "name": "",
          "type": "string"
        },
        {
          "name": "",
          "type": "string"
        },
        {
          "name": "",
          "type": "uint256"
        }
      ],
      "payable": false,
      "stateMutability": "view",
      "type": "function"
    },
    {
      "constant": true,
      "inputs": [],
      "name": "getTotalArtists",
      "outputs": [
        {
          "name": "",
          "type": "uint256"
        }
      ],
      "payable": false,
      "stateMutability": "view",
      "type": "function"
    },
    {
      "constant": true,
      "inputs": [],
      "name": "getTotalSongs",
      "outputs": [
        {
          "name": "",
          "type": "uint256"
        }
      ],
      "payable": false,
      "stateMutability": "view",
      "type": "function"
    },
    {
      "constant": true,
      "inputs": [],
      "name": "userValidityCheck",
      "outputs": [
        {
          "name": "",
          "type": "bool"
        }
      ],
      "payable": false,
      "stateMutability": "view",
      "type": "function"
    },
    {
      "constant": true,
      "inputs": [
        {
          "name": "songId",
          "type": "uint256"
        }
      ],
      "name": "getArtistIdBySongId",
      "outputs": [
        {
          "name": "",
          "type": "uint256"
        }
      ],
      "payable": false,
      "stateMutability": "view",
      "type": "function"
    },
    {
      "constant": true,
      "inputs": [
        {
          "name": "adr",
          "type": "address"
        }
      ],
      "name": "getArtistDetailsByAddress",
      "outputs": [
        {
          "name": "",
          "type": "string"
        },
        {
          "name": "",
          "type": "uint256"
        }
      ],
      "payable": false,
      "stateMutability": "view",
      "type": "function"
    }
  ],
  "bytecode": "0x608060405260006002556001600555600060095534801561001f57600080fd5b506040516020806137478339810180604052810190808051906020019092919050505080600a60006101000a81548173ffffffffffffffffffffffffffffffffffffffff021916908373ffffffffffffffffffffffffffffffffffffffff16021790555033600b60006101000a81548173ffffffffffffffffffffffffffffffffffffffff021916908373ffffffffffffffffffffffffffffffffffffffff16021790555050613673806100d46000396000f300608060405260043610610149576000357c0100000000000000000000000000000000000000000000000000000000900463ffffffff16806307791a771461014b5780630868df8f1461018c5780630a60ec58146101f85780631f09d75a14610223578063202911961461026457806327693d7014610291578063348c5674146102c057806341515777146102eb5780634d3820eb14610391578063606a0175146103a8578063614409c8146103c857806376caa4f1146104c757806377822fc2146105165780638c9db2b4146107005780639ed360391461072b578063a293d1e81461076c578063be4bb047146107b7578063c6e70ffa14610823578063cdce0f621461087e578063cf6c6b88146108c3578063d05c78da14610a48578063e6cb901314610a93578063eb1296ec14610ade578063ef99046014610ba1578063fd950a3e14610cd6575b005b34801561015757600080fd5b5061017660048036038101908080359060200190929190505050610d17565b6040518082815260200191505060405180910390f35b34801561019857600080fd5b506101a1610dda565b6040518080602001828103825283818151815260200191508051906020019060200280838360005b838110156101e45780820151818401526020810190506101c9565b505050509050019250505060405180910390f35b34801561020457600080fd5b5061020d610f62565b6040518082815260200191505060405180910390f35b34801561022f57600080fd5b5061024e600480360381019080803590602001909291905050506110fa565b6040518082815260200191505060405180910390f35b34801561027057600080fd5b5061028f60048036038101908080359060200190929190505050611268565b005b34801561029d57600080fd5b506102a6611347565b604051808215151515815260200191505060405180910390f35b3480156102cc57600080fd5b506102d5611498565b6040518082815260200191505060405180910390f35b3480156102f757600080fd5b50610316600480360381019080803590602001909291905050506114a2565b6040518080602001828103825283818151815260200191508051906020019080838360005b8381101561035657808201518184015260208101905061033b565b50505050905090810190601f1680156103835780820380516001836020036101000a031916815260200191505b509250505060405180910390f35b34801561039d57600080fd5b506103a66116d8565b005b6103c660048036038101908080359060200190929190505050611811565b005b3480156103d457600080fd5b506104c5600480360381019080803590602001908201803590602001908080601f0160208091040260200160405190810160405280939291908181526020018383808284378201915050505050509192919290803590602001908201803590602001908080601f016020809104026020016040519081016040528093929190818152602001838380828437820191505050505050919291929080359060200190929190803590602001908201803590602001908080601f0160208091040260200160405190810160405280939291908181526020018383808284378201915050505050509192919290505050611ed2565b005b3480156104d357600080fd5b506104fc6004803603810190808035906020019092919080359060200190929190505050612287565b604051808215151515815260200191505060405180910390f35b34801561052257600080fd5b50610541600480360381019080803590602001909291905050506122eb565b6040518080602001806020018060200180602001858103855289818151815260200191508051906020019080838360005b8381101561058d578082015181840152602081019050610572565b50505050905090810190601f1680156105ba5780820380516001836020036101000a031916815260200191505b50858103845288818151815260200191508051906020019080838360005b838110156105f35780820151818401526020810190506105d8565b50505050905090810190601f1680156106205780820380516001836020036101000a031916815260200191505b50858103835287818151815260200191508051906020019080838360005b8381101561065957808201518184015260208101905061063e565b50505050905090810190601f1680156106865780820380516001836020036101000a031916815260200191505b50858103825286818151815260200191508051906020019080838360005b838110156106bf5780820151818401526020810190506106a4565b50505050905090810190601f1680156106ec5780820380516001836020036101000a031916815260200191505b509850505050505050505060405180910390f35b34801561070c57600080fd5b506107156127a5565b6040518082815260200191505060405180910390f35b34801561073757600080fd5b50610756600480360381019080803590602001909291905050506127b2565b6040518082815260200191505060405180910390f35b34801561077857600080fd5b506107a16004803603810190808035906020019092919080359060200190929190505050612831565b6040518082815260200191505060405180910390f35b3480156107c357600080fd5b506107cc61284a565b6040518080602001828103825283818151815260200191508051906020019060200280838360005b8381101561080f5780820151818401526020810190506107f4565b505050509050019250505060405180910390f35b34801561082f57600080fd5b50610864600480360381019080803573ffffffffffffffffffffffffffffffffffffffff1690602001909291905050506129fe565b604051808215151515815260200191505060405180910390f35b34801561088a57600080fd5b506108a960048036038101908080359060200190929190505050612a9e565b604051808215151515815260200191505060405180910390f35b3480156108cf57600080fd5b506108ee60048036038101908080359060200190929190505050612c2b565b60405180806020018060200180602001858152602001848103845288818151815260200191508051906020019080838360005b8381101561093c578082015181840152602081019050610921565b50505050905090810190601f1680156109695780820380516001836020036101000a031916815260200191505b50848103835287818151815260200191508051906020019080838360005b838110156109a2578082015181840152602081019050610987565b50505050905090810190601f1680156109cf5780820380516001836020036101000a031916815260200191505b50848103825286818151815260200191508051906020019080838360005b83811015610a085780820151818401526020810190506109ed565b50505050905090810190601f168015610a355780820380516001836020036101000a031916815260200191505b5097505050505050505060405180910390f35b348015610a5457600080fd5b50610a7d6004803603810190808035906020019092919080359060200190929190505050612f70565b6040518082815260200191505060405180910390f35b348015610a9f57600080fd5b50610ac86004803603810190808035906020019092919080359060200190929190505050612fa3565b6040518082815260200191505060405180910390f35b348015610aea57600080fd5b50610b1f600480360381019080803573ffffffffffffffffffffffffffffffffffffffff169060200190929190505050612fc1565b6040518080602001838152602001828103825284818151815260200191508051906020019080838360005b83811015610b65578082015181840152602081019050610b4a565b50505050905090810190601f168015610b925780820380516001836020036101000a031916815260200191505b50935050505060405180910390f35b348015610bad57600080fd5b50610c94600480360381019080803590602001908201803590602001908080601f0160208091040260200160405190810160405280939291908181526020018383808284378201915050505050509192919290803590602001908201803590602001908080601f0160208091040260200160405190810160405280939291908181526020018383808284378201915050505050509192919290803590602001908201803590602001908080601f01602080910402602001604051908101604052809392919081815260200183838082843782019150505050505091929192905050506130ef565b604051808273ffffffffffffffffffffffffffffffffffffffff1673ffffffffffffffffffffffffffffffffffffffff16815260200191505060405180910390f35b348015610ce257600080fd5b50610d0160048036038101908080359060200190929190505050613590565b6040518082815260200191505060405180910390f35b6000336000600860008373ffffffffffffffffffffffffffffffffffffffff1673ffffffffffffffffffffffffffffffffffffffff1681526020019081526020016000206001015410158015610db05750600954600860008373ffffffffffffffffffffffffffffffffffffffff1673ffffffffffffffffffffffffffffffffffffffff16815260200190815260200160002060010154105b1515610dbb57600080fd5b6004600084815260200190815260200160002060080154915050919050565b606080600080336000600860008373ffffffffffffffffffffffffffffffffffffffff1673ffffffffffffffffffffffffffffffffffffffff1681526020019081526020016000206001015410158015610e775750600954600860008373ffffffffffffffffffffffffffffffffffffffff1673ffffffffffffffffffffffffffffffffffffffff16815260200190815260200160002060010154105b1515610e8257600080fd5b600860003373ffffffffffffffffffffffffffffffffffffffff1673ffffffffffffffffffffffffffffffffffffffff1681526020019081526020016000206002015460016005540303604051908082528060200260200182016040528015610efa5781602001602082028038833980820191505090505b50935060009250600191505b600554821015610f585760001515610f1d83612a9e565b15151415610f4b57818484815181101515610f3457fe5b906020019060200201818152505082806001019350505b8180600101925050610f06565b8394505050505090565b600080600160003373ffffffffffffffffffffffffffffffffffffffff1673ffffffffffffffffffffffffffffffffffffffff1681526020019081526020016000206001015410158015610ff95750600254600160003373ffffffffffffffffffffffffffffffffffffffff1673ffffffffffffffffffffffffffffffffffffffff16815260200190815260200160002060010154105b151561100457600080fd5b3373ffffffffffffffffffffffffffffffffffffffff16600080600160003373ffffffffffffffffffffffffffffffffffffffff1673ffffffffffffffffffffffffffffffffffffffff16815260200190815260200160002060010154815260200190815260200160002060009054906101000a900473ffffffffffffffffffffffffffffffffffffffff1673ffffffffffffffffffffffffffffffffffffffff161415156110b257600080fd5b600160003373ffffffffffffffffffffffffffffffffffffffff1673ffffffffffffffffffffffffffffffffffffffff16815260200190815260200160002060060154905090565b600080600160003373ffffffffffffffffffffffffffffffffffffffff1673ffffffffffffffffffffffffffffffffffffffff16815260200190815260200160002060010154101580156111915750600254600160003373ffffffffffffffffffffffffffffffffffffffff1673ffffffffffffffffffffffffffffffffffffffff16815260200190815260200160002060010154105b151561119c57600080fd5b3373ffffffffffffffffffffffffffffffffffffffff16600080600160003373ffffffffffffffffffffffffffffffffffffffff1673ffffffffffffffffffffffffffffffffffffffff16815260200190815260200160002060010154815260200190815260200160002060009054906101000a900473ffffffffffffffffffffffffffffffffffffffff1673ffffffffffffffffffffffffffffffffffffffff1614151561124a57600080fd5b60046000838152602001908152602001600020600701549050919050565b336000600860008373ffffffffffffffffffffffffffffffffffffffff1673ffffffffffffffffffffffffffffffffffffffff16815260200190815260200160002060010154101580156112ff5750600954600860008373ffffffffffffffffffffffffffffffffffffffff1673ffffffffffffffffffffffffffffffffffffffff16815260200190815260200160002060010154105b151561130a57600080fd5b6113296004600084815260200190815260200160002060050154613590565b60046000848152602001908152602001600020600801819055505050565b6000336000600860008373ffffffffffffffffffffffffffffffffffffffff1673ffffffffffffffffffffffffffffffffffffffff16815260200190815260200160002060010154101580156113e05750600954600860008373ffffffffffffffffffffffffffffffffffffffff1673ffffffffffffffffffffffffffffffffffffffff16815260200190815260200160002060010154105b15156113eb57600080fd5b6000600860003373ffffffffffffffffffffffffffffffffffffffff1673ffffffffffffffffffffffffffffffffffffffff16815260200190815260200160002060010154101580156114815750600954600860003373ffffffffffffffffffffffffffffffffffffffff1673ffffffffffffffffffffffffffffffffffffffff16815260200190815260200160002060010154105b1561148f5760019150611494565b600091505b5090565b6000600254905090565b6060816000806000600860003373ffffffffffffffffffffffffffffffffffffffff1673ffffffffffffffffffffffffffffffffffffffff168152602001908152602001600020600101541015801561153e5750600954600860003373ffffffffffffffffffffffffffffffffffffffff1673ffffffffffffffffffffffffffffffffffffffff16815260200190815260200160002060010154105b151561154957600080fd5b60009150600090505b600860003373ffffffffffffffffffffffffffffffffffffffff1673ffffffffffffffffffffffffffffffffffffffff168152602001908152602001600020600201548110156116135782600860003373ffffffffffffffffffffffffffffffffffffffff1673ffffffffffffffffffffffffffffffffffffffff168152602001908152602001600020600001828154811015156115ec57fe5b906000526020600020015414156116065760019150611613565b8080600101915050611552565b60018214151561162257600080fd5b600360008681526020019081526020016000208054600181600116156101000203166002900480601f0160208091040260200160405190810160405280929190818152602001828054600181600116156101000203166002900480156116c95780601f1061169e576101008083540402835291602001916116c9565b820191906000526020600020905b8154815290600101906020018083116116ac57829003601f168201915b50505050509350505050919050565b600115156116e5336129fe565b15151415156116f357600080fd5b3360076000600954815260200190815260200160002060006101000a81548173ffffffffffffffffffffffffffffffffffffffff021916908373ffffffffffffffffffffffffffffffffffffffff160217905550600954600860003373ffffffffffffffffffffffffffffffffffffffff1673ffffffffffffffffffffffffffffffffffffffff168152602001908152602001600020600101819055507ff8fe81af5e6ad44d9448eb44bdc329b359ee33d6cb562228bf4344883badebe633600954604051808373ffffffffffffffffffffffffffffffffffffffff1673ffffffffffffffffffffffffffffffffffffffff1681526020018281526020019250505060405180910390a1600960008154809291906001019190505550565b600080336000600860008373ffffffffffffffffffffffffffffffffffffffff1673ffffffffffffffffffffffffffffffffffffffff16815260200190815260200160002060010154101580156118ab5750600954600860008373ffffffffffffffffffffffffffffffffffffffff1673ffffffffffffffffffffffffffffffffffffffff16815260200190815260200160002060010154105b15156118b657600080fd5b6118bf84612a9e565b151515611934576040517f08c379a00000000000000000000000000000000000000000000000000000000081526004018080602001828103825260168152602001807f5573657220616c7265616479206f776e7320736f6e670000000000000000000081525060200191505060405180910390fd5b6004600085815260200190815260200160002060080154925061195e8366027b986ec365c2612fa3565b3410801561197b57506119788366027b986ec365c2612831565b34115b15156119ef576040517f08c379a00000000000000000000000000000000000000000000000000000000081526004018080602001828103825260118152602001807f416d6f756e74206e6f742076616c69642100000000000000000000000000000081525060200191505060405180910390fd5b3073ffffffffffffffffffffffffffffffffffffffff166108fc349081150290604051600060405180830381858888f19350505050158015611a35573d6000803e3d6000fd5b50600860003373ffffffffffffffffffffffffffffffffffffffff1673ffffffffffffffffffffffffffffffffffffffff1681526020019081526020016000206000018490806001815401808255809150509060018203906000526020600020016000909192909190915055600860003373ffffffffffffffffffffffffffffffffffffffff1673ffffffffffffffffffffffffffffffffffffffff168152602001908152602001600020600201819055506004600085815260200190815260200160002060060160008154809291906001019190505550611b4360046000868152602001908152602001600020600701546004600087815260200190815260200160002060050154612fa3565b6004600086815260200190815260200160002060070181905550611bf2600160006006600088815260200190815260200160002060009054906101000a900473ffffffffffffffffffffffffffffffffffffffff1673ffffffffffffffffffffffffffffffffffffffff1673ffffffffffffffffffffffffffffffffffffffff168152602001908152602001600020600601546004600087815260200190815260200160002060050154612fa3565b600160006006600088815260200190815260200160002060009054906101000a900473ffffffffffffffffffffffffffffffffffffffff1673ffffffffffffffffffffffffffffffffffffffff1673ffffffffffffffffffffffffffffffffffffffff16815260200190815260200160002060060181905550600a60009054906101000a900473ffffffffffffffffffffffffffffffffffffffff1673ffffffffffffffffffffffffffffffffffffffff1663ddb552fa600160006006600089815260200190815260200160002060009054906101000a900473ffffffffffffffffffffffffffffffffffffffff1673ffffffffffffffffffffffffffffffffffffffff1673ffffffffffffffffffffffffffffffffffffffff168152602001908152602001600020600101546040518263ffffffff167c010000000000000000000000000000000000000000000000000000000002815260040180828152602001915050602060405180830381600087803b158015611d7157600080fd5b505af1158015611d85573d6000803e3d6000fd5b505050506040513d6020811015611d9b57600080fd5b810190808051906020019092919050505091508173ffffffffffffffffffffffffffffffffffffffff1663d48bfca7336040518263ffffffff167c0100000000000000000000000000000000000000000000000000000000028152600401808273ffffffffffffffffffffffffffffffffffffffff1673ffffffffffffffffffffffffffffffffffffffff168152602001915050600060405180830381600087803b158015611e4957600080fd5b505af1158015611e5d573d6000803e3d6000fd5b505050507f8e82f6e86c5c5b67f0e8d70f38a062e28a444acdcf19418be44bf0cbcfc7d7258433604051808381526020018273ffffffffffffffffffffffffffffffffffffffff1673ffffffffffffffffffffffffffffffffffffffff1681526020019250505060405180910390a150505050565b6000600160003373ffffffffffffffffffffffffffffffffffffffff1673ffffffffffffffffffffffffffffffffffffffff1681526020019081526020016000206001015410158015611f685750600254600160003373ffffffffffffffffffffffffffffffffffffffff1673ffffffffffffffffffffffffffffffffffffffff16815260200190815260200160002060010154105b1515611f7357600080fd5b3373ffffffffffffffffffffffffffffffffffffffff16600080600160003373ffffffffffffffffffffffffffffffffffffffff1673ffffffffffffffffffffffffffffffffffffffff16815260200190815260200160002060010154815260200190815260200160002060009054906101000a900473ffffffffffffffffffffffffffffffffffffffff1673ffffffffffffffffffffffffffffffffffffffff1614151561202157600080fd5b83600360006005548152602001908152602001600020908051906020019061204a9291906135a2565b503360066000600554815260200190815260200160002060006101000a81548173ffffffffffffffffffffffffffffffffffffffff021916908373ffffffffffffffffffffffffffffffffffffffff160217905550600554600460006005548152602001908152602001600020600101819055508360046000600554815260200190815260200160002060000190805190602001906120ea9291906135a2565b508260046000600554815260200190815260200160002060020190805190602001906121179291906135a2565b50600160003373ffffffffffffffffffffffffffffffffffffffff1673ffffffffffffffffffffffffffffffffffffffff168152602001908152602001600020600101546004600060055481526020019081526020016000206003018190555081600460006005548152602001908152602001600020600501819055508060046000600554815260200190815260200160002060040190805190602001906121c09291906135a2565b507f8283d58d1cfc3efd6d8cd081b41f11c4729412d00837dbd56adebb8c5fb62b9783836005546040518080602001848152602001838152602001828103825285818151815260200191508051906020019080838360005b83811015612233578082015181840152602081019050612218565b50505050905090810190601f1680156122605780820380516001836020036101000a031916815260200191505b5094505050505060405180910390a160056000815480929190600101919050555050505050565b600080600460008481526020019081526020016000206008015490506122b48166027b986ec365c2612fa3565b841080156122d157506122ce8166027b986ec365c2612831565b84115b156122df57600191506122e4565b600091505b5092915050565b606080606080846000806000600860003373ffffffffffffffffffffffffffffffffffffffff1673ffffffffffffffffffffffffffffffffffffffff168152602001908152602001600020600101541015801561238b5750600954600860003373ffffffffffffffffffffffffffffffffffffffff1673ffffffffffffffffffffffffffffffffffffffff16815260200190815260200160002060010154105b151561239657600080fd5b60009150600090505b600860003373ffffffffffffffffffffffffffffffffffffffff1673ffffffffffffffffffffffffffffffffffffffff168152602001908152602001600020600201548110156124605782600860003373ffffffffffffffffffffffffffffffffffffffff1673ffffffffffffffffffffffffffffffffffffffff1681526020019081526020016000206000018281548110151561243957fe5b906000526020600020015414156124535760019150612460565b808060010191505061239f565b60018214151561246f57600080fd5b60036000898152602001908152602001600020600460008a8152602001908152602001600020600201600460008b815260200190815260200160002060040160016000600660008e815260200190815260200160002060009054906101000a900473ffffffffffffffffffffffffffffffffffffffff1673ffffffffffffffffffffffffffffffffffffffff1673ffffffffffffffffffffffffffffffffffffffff168152602001908152602001600020600201838054600181600116156101000203166002900480601f0160208091040260200160405190810160405280929190818152602001828054600181600116156101000203166002900480156125b85780601f1061258d576101008083540402835291602001916125b8565b820191906000526020600020905b81548152906001019060200180831161259b57829003601f168201915b50505050509350828054600181600116156101000203166002900480601f0160208091040260200160405190810160405280929190818152602001828054600181600116156101000203166002900480156126545780601f1061262957610100808354040283529160200191612654565b820191906000526020600020905b81548152906001019060200180831161263757829003601f168201915b50505050509250818054600181600116156101000203166002900480601f0160208091040260200160405190810160405280929190818152602001828054600181600116156101000203166002900480156126f05780601f106126c5576101008083540402835291602001916126f0565b820191906000526020600020905b8154815290600101906020018083116126d357829003601f168201915b50505050509150808054600181600116156101000203166002900480601f01602080910402602001604051908101604052809291908181526020018280546001816001161561010002031660029004801561278c5780601f106127615761010080835404028352916020019161278c565b820191906000526020600020905b81548152906001019060200180831161276f57829003601f168201915b5050505050905096509650965096505050509193509193565b6000600160055403905090565b6000600160006006600085815260200190815260200160002060009054906101000a900473ffffffffffffffffffffffffffffffffffffffff1673ffffffffffffffffffffffffffffffffffffffff1673ffffffffffffffffffffffffffffffffffffffff168152602001908152602001600020600101549050919050565b600082821115151561283f57fe5b818303905092915050565b606080336000600860008373ffffffffffffffffffffffffffffffffffffffff1673ffffffffffffffffffffffffffffffffffffffff16815260200190815260200160002060010154101580156128e45750600954600860008373ffffffffffffffffffffffffffffffffffffffff1673ffffffffffffffffffffffffffffffffffffffff16815260200190815260200160002060010154105b15156128ef57600080fd5b600860003373ffffffffffffffffffffffffffffffffffffffff1673ffffffffffffffffffffffffffffffffffffffff168152602001908152602001600020600201546040519080825280602002602001820160405280156129605781602001602082028038833980820191505090505b509150600860003373ffffffffffffffffffffffffffffffffffffffff1673ffffffffffffffffffffffffffffffffffffffff1681526020019081526020016000206000018054806020026020016040519081016040528092919081815260200182805480156129ef57602002820191906000526020600020905b8154815260200190600101908083116129db575b50505050509150819250505090565b6000806000809150600090505b600954811015612a92578373ffffffffffffffffffffffffffffffffffffffff166007600083815260200190815260200160002060009054906101000a900473ffffffffffffffffffffffffffffffffffffffff1673ffffffffffffffffffffffffffffffffffffffff161415612a855760009250612a97565b8080600101915050612a0b565b600192505b5050919050565b600080600080600860003373ffffffffffffffffffffffffffffffffffffffff1673ffffffffffffffffffffffffffffffffffffffff1681526020019081526020016000206001015410158015612b385750600954600860003373ffffffffffffffffffffffffffffffffffffffff1673ffffffffffffffffffffffffffffffffffffffff16815260200190815260200160002060010154105b1515612b4357600080fd5b60009150600090505b600860003373ffffffffffffffffffffffffffffffffffffffff1673ffffffffffffffffffffffffffffffffffffffff16815260200190815260200160002060020154811015612c0d5783600860003373ffffffffffffffffffffffffffffffffffffffff1673ffffffffffffffffffffffffffffffffffffffff16815260200190815260200160002060000182815481101515612be657fe5b90600052602060002001541415612c005760019150612c0d565b8080600101915050612b4c565b6001821415612c1f5760019250612c24565b600092505b5050919050565b60608060606000336000600860008373ffffffffffffffffffffffffffffffffffffffff1673ffffffffffffffffffffffffffffffffffffffff1681526020019081526020016000206001015410158015612cc95750600954600860008373ffffffffffffffffffffffffffffffffffffffff1673ffffffffffffffffffffffffffffffffffffffff16815260200190815260200160002060010154105b1515612cd457600080fd5b600460008781526020019081526020016000206002016004600088815260200190815260200160002060040160016000600660008b815260200190815260200160002060009054906101000a900473ffffffffffffffffffffffffffffffffffffffff1673ffffffffffffffffffffffffffffffffffffffff1673ffffffffffffffffffffffffffffffffffffffff168152602001908152602001600020600201600460008a815260200190815260200160002060050154838054600181600116156101000203166002900480601f016020809104026020016040519081016040528092919081815260200182805460018160011615610100020316600290048015612e215780601f10612df657610100808354040283529160200191612e21565b820191906000526020600020905b815481529060010190602001808311612e0457829003601f168201915b50505050509350828054600181600116156101000203166002900480601f016020809104026020016040519081016040528092919081815260200182805460018160011615610100020316600290048015612ebd5780601f10612e9257610100808354040283529160200191612ebd565b820191906000526020600020905b815481529060010190602001808311612ea057829003601f168201915b50505050509250818054600181600116156101000203166002900480601f016020809104026020016040519081016040528092919081815260200182805460018160011615610100020316600290048015612f595780601f10612f2e57610100808354040283529160200191612f59565b820191906000526020600020905b815481529060010190602001808311612f3c57829003601f168201915b505050505091509450945094509450509193509193565b60008082840290506000841480612f915750828482811515612f8e57fe5b04145b1515612f9957fe5b8091505092915050565b6000808284019050838110151515612fb757fe5b8091505092915050565b60606000600160008473ffffffffffffffffffffffffffffffffffffffff1673ffffffffffffffffffffffffffffffffffffffff168152602001908152602001600020600201600160008573ffffffffffffffffffffffffffffffffffffffff1673ffffffffffffffffffffffffffffffffffffffff16815260200190815260200160002060010154818054600181600116156101000203166002900480601f0160208091040260200160405190810160405280929190818152602001828054600181600116156101000203166002900480156130df5780601f106130b4576101008083540402835291602001916130df565b820191906000526020600020905b8154815290600101906020018083116130c257829003601f168201915b5050505050915091509150915091565b60008033600080600254815260200190815260200160002060006101000a81548173ffffffffffffffffffffffffffffffffffffffff021916908373ffffffffffffffffffffffffffffffffffffffff16021790555082600160003373ffffffffffffffffffffffffffffffffffffffff1673ffffffffffffffffffffffffffffffffffffffff168152602001908152602001600020600001908051906020019061319b9291906135a2565b5084600160003373ffffffffffffffffffffffffffffffffffffffff1673ffffffffffffffffffffffffffffffffffffffff16815260200190815260200160002060020190805190602001906131f29291906135a2565b5083600160003373ffffffffffffffffffffffffffffffffffffffff1673ffffffffffffffffffffffffffffffffffffffff16815260200190815260200160002060030190805190602001906132499291906135a2565b5033600160003373ffffffffffffffffffffffffffffffffffffffff1673ffffffffffffffffffffffffffffffffffffffff16815260200190815260200160002060040160006101000a81548173ffffffffffffffffffffffffffffffffffffffff021916908373ffffffffffffffffffffffffffffffffffffffff160217905550600254600160003373ffffffffffffffffffffffffffffffffffffffff1673ffffffffffffffffffffffffffffffffffffffff168152602001908152602001600020600101819055506000600160003373ffffffffffffffffffffffffffffffffffffffff1673ffffffffffffffffffffffffffffffffffffffff16815260200190815260200160002060060181905550600a60009054906101000a900473ffffffffffffffffffffffffffffffffffffffff1673ffffffffffffffffffffffffffffffffffffffff16631d357ae060025487336040518463ffffffff167c010000000000000000000000000000000000000000000000000000000002815260040180848152602001806020018373ffffffffffffffffffffffffffffffffffffffff1673ffffffffffffffffffffffffffffffffffffffff168152602001828103825284818151815260200191508051906020019080838360005b83811015613442578082015181840152602081019050613427565b50505050905090810190601f16801561346f5780820380516001836020036101000a031916815260200191505b50945050505050602060405180830381600087803b15801561349057600080fd5b505af11580156134a4573d6000803e3d6000fd5b505050506040513d60208110156134ba57600080fd5b810190808051906020019092919050505090507f3779936bdf84d221d1510fc484f81a4b94935359302bf6a0f77d47ae31dd9978856002546040518080602001838152602001828103825284818151815260200191508051906020019080838360005b8381101561353857808201518184015260208101905061351d565b50505050905090810190601f1680156135655780820380516001836020036101000a031916815260200191505b50935050505060405180910390a1600260008154809291906001019190505550809150509392505050565b6000670de0b6b3a76400009050919050565b828054600181600116156101000203166002900490600052602060002090601f016020900481019282601f106135e357805160ff1916838001178555613611565b82800160010185558215613611579182015b828111156136105782518255916020019190600101906135f5565b5b50905061361e9190613622565b5090565b61364491905b80821115613640576000816000905550600101613628565b5090565b905600a165627a7a7230582091b2ce5bdb4bccedc674a89f9729a3edb3248f7e8007173ba8861e81e0b345b90029",
  "source": "pragma solidity ^0.4.23;\n\nimport \"./FanToken.sol\";\nimport \"./FanTokenFactory.sol\";\n//TODO: decimal point in dollar data handling\n\ncontract musicApp is SafeMathLib {\n\n    //Global Variables\n    \n    struct _song {\n        string songHash;\n        uint songID;\n        string name;\n        uint artistID; //Might be redundant \n        string songArtHash;\n        uint256 priceInD;\n        uint256 totalSold;\n        uint256 totalRevenues;\n        uint256 latestWeiPrice;\n    }\n\n    struct _artist {\n        string artistDPHash;\n        uint id;\n        string name;\n        string description;\n        address adr;\n        uint[] songs; // Keep track of all songs the particular artist has made. List of song IDs.\n        uint totalEarningsInD;\n    }\n\n    struct _user {\n        uint[] songsOwned; //We cannot have an array of strings + mapping - index to song ids\n        uint userID; // Same as mapping index    \n        uint totalSongsOwned;\n    }\n    \n    //Artist mappings\n    mapping (uint => address) private artistAddressOf;\n    mapping (address => _artist) private artist;\n    uint artists = 0;\n\n    //Song Mappings\n    mapping (uint => string) private songHashOf;\n    mapping (uint => _song) private song; //mapping of song ID to song struct as it is the most frequently passed parameter\n    uint songs = 1; //NOTIFY OF THIS\n\n    mapping(uint => address) artistOf; //Maps songIDs to artist address\n\n    //User mappings\n    mapping (uint => address) userAddressOf;\n    mapping (address => _user) user;\n    uint users = 0;\n\n    FanTokenFactory tokenFactory;\n    address ownerAddress;\n\n    //Events\n    //Modifiers\n    modifier validArtist() {\n        require(artist[msg.sender].id >= 0 && artist[msg.sender].id < artists);\n        require(artistAddressOf[artist[msg.sender].id] == msg.sender); //Cross checking\n        _;\n    }\n\n    modifier onlyOwner() {\n        require(msg.sender == ownerAddress);\n        _;\n    }\n    modifier ownsSong(uint _songID) {\n        require(user[msg.sender].userID >= 0 && user[msg.sender].userID < users); //Check if valid user\n        uint f = 0;\n        for(uint i = 0; i < user[msg.sender].totalSongsOwned; i++) {\n            if(user[msg.sender].songsOwned[i] == _songID) {\n                f = 1;\n                break;\n            }\n            }\n        require(f==1);\n        _;\n    } \n\n    modifier validUser(address _adr) {\n        require(user[_adr].userID >= 0 && user[_adr].userID < users);\n        _;\n    }\n    modifier newUser() {\n        uint f=0;\n        for(uint i = 0; i < users; i++) {\n            if(userAddressOf[i] == msg.sender) {\n                f=1;\n            }\n        }\n        require(f==0);\n        _;\n    }\n    //events\n    event singleArtistRegistered(string _name, uint artistID);\n    event songAdded(string _title,uint _priceInD,uint songID);\n    event userRegistered(address userAddress,uint userID);\n    event songBuySuccessful(uint _songID,address userAddress);\n\n    // // Helper Functions\n    // function compareStrings (string a, string b) public view returns (bool){\n    //     return keccak256(a) == keccak256(b);\n    // }\n\n    //constructor\n    constructor (address factoryAddress) {\n        tokenFactory = FanTokenFactory(factoryAddress);\n        ownerAddress = msg.sender;\n    }\n\n    // function addFactoryTokenAddress(address _tokenFactory) onlyOwner public {\n    //     // require(tokenFactory == 0); Find another way to check this\n    //     tokenFactory = FanTokenFactory(tokenFactory);\n    // }\n    uint constant weiThreshold = 698844576966082; // 30 cents- threshold for allowing people \n    //Artist side functions\n\n    //Create artist\n    // TODO: Multisig implementation\n\n    // Called when web3 indicates single owner account\n    function registerSingleArtist(string _name, string _desc, string _pictureHash) public returns(address tokenAddress) {\n        artistAddressOf[artists] = msg.sender;\n        artist[msg.sender].artistDPHash = _pictureHash;\n        artist[msg.sender].name = _name; \n        artist[msg.sender].description = _desc;\n        artist[msg.sender].adr = msg.sender;\n        artist[msg.sender].id = artists;\n        artist[msg.sender].totalEarningsInD = 0;\n        address token = tokenFactory.createFanToken(artists, _name, msg.sender);\n        emit singleArtistRegistered(_name, artists);\n        artists++;\n        return token;\n        // songs\n    }\n\n    //Upload music\n    function addSong(string _songHash, string _title, uint256 _priceInD, string _songArtHash) public validArtist {\n        songHashOf[songs] = _songHash;\n        artistOf[songs] = msg.sender;\n        song[songs].songID = songs;\n        song[songs].songHash = _songHash;\n        song[songs].name = _title;\n        song[songs].artistID = artist[msg.sender].id;\n        song[songs].priceInD = _priceInD;\n        song[songs].songArtHash = _songArtHash;\n        emit songAdded(_title, _priceInD, songs);\n        songs++;\n    }\n\n    function checkTotalRevenues()  public view validArtist returns (uint) {\n        return artist[msg.sender].totalEarningsInD;\n    }\n\n    function checkSongRevenues(uint _songID) public view validArtist returns (uint) {\n        return song[_songID].totalRevenues;\n    }\n    \n    function checkSanity(uint n, uint _songID) public view returns (bool) {\n        uint256 latestPrice = song[_songID].latestWeiPrice;\n        if( n < safeAdd(latestPrice, weiThreshold) && n > safeSub(latestPrice, weiThreshold)) {\n            return true;\n        }\n        else {\n            return false;\n        }\n        //return safeAdd(latestPrice, weiThreshold);\n        //return latestPrice;\n    }\n    //WIthdraw fund function to be implemented with multisig wallet\n\n    function dollarToWei(uint _dollars) public returns(uint) {\n        return 1000000000000000000;\n    }\n\n    //--//--//--//--//--//--//--//--//--//User side//--//--//--//--//--//--//--//--//--//--//-- \n    function checkIfNewUser(address adr) public view returns (bool) {\n        uint f=0;\n        for(uint i = 0; i < users; i++) {\n            if(userAddressOf[i] == adr) {\n                return false;\n            }\n        }\n        return true;\n    } \n    function registerUser() public {\n        require(checkIfNewUser(msg.sender) == true);\n        userAddressOf[users] = msg.sender;\n        user[msg.sender].userID = users;\n        emit userRegistered(msg.sender, users);\n        users++;\n    }\n    \n    function initiateBuy(uint _songID) validUser(msg.sender) public {\n        song[_songID].latestWeiPrice = dollarToWei(song[_songID].priceInD);\n    }\n    function getLatestWeiPrice(uint _songID) validUser(msg.sender) public view returns(uint256) {\n        return song[_songID].latestWeiPrice;\n    }\n    //Buy music - ETH-$ concepth\n    function buySong(uint _songID) validUser(msg.sender) public payable {\n        require(!userOwns(_songID),\"User already owns song\");\n        uint256 latestPrice = song[_songID].latestWeiPrice;\n        require(msg.value < safeAdd(latestPrice, weiThreshold) && msg.value > safeSub(latestPrice, weiThreshold), \"Amount not valid!\");\n        this.transfer(msg.value); //TODO: require confirmation of funds transferred\n        user[msg.sender].totalSongsOwned = user[msg.sender].songsOwned.push(_songID);\n        song[_songID].totalSold++;\n        song[_songID].totalRevenues = safeAdd(song[_songID].totalRevenues, song[_songID].priceInD);\n        artist[artistOf[_songID]].totalEarningsInD = safeAdd(artist[artistOf[_songID]].totalEarningsInD, song[_songID].priceInD);\n        FanToken fanToken = FanToken(tokenFactory.getTokenAddressOf(artist[artistOf[_songID]].id));\n        fanToken.addToken(msg.sender);\n        emit songBuySuccessful(_songID, msg.sender);\n    }\n\n    function getSongHashByID(uint _songID) public view ownsSong(_songID) returns(string) {\n        return songHashOf[_songID];\n    }\n\n    function getSongDetails(uint _songID) public view ownsSong(_songID) returns(string, string, string, string) {\n        return (songHashOf[_songID],song[_songID].name, song[_songID].songArtHash, artist[artistOf[_songID]].name);\n    }\n\n    //Vote - token contract\n    // Display library functions\n    function getUserSongList() public view validUser(msg.sender) returns (uint[])   {\n        uint[] memory songList = new uint[](user[msg.sender].totalSongsOwned);\n        songList = user[msg.sender].songsOwned; //Check if this works\n        return songList;\n    }\n\n    // Display store list\n    //Check if this is needed. App will have a list of all song ids with it at all times\n    // Dont display IDs that are akready owned by user. \n    function getStoreSongList() public view validUser(msg.sender) returns (uint[]) {\n        uint[] memory allSongList = new uint[](songs-1-user[msg.sender].totalSongsOwned); //Check how to make this work?\n        uint j=0;\n        for(uint i = 1; i < songs; i++){\n            if(userOwns(i) == false) {\n                allSongList[j] = i;\n                j++;\n            }\n        }\n        return allSongList;\n    }\n\n    function userOwns(uint _songId) public view returns(bool) {\n       require(user[msg.sender].userID >= 0 && user[msg.sender].userID < users); //Check if valid user\n        uint f = 0;\n        for(uint i = 0; i < user[msg.sender].totalSongsOwned; i++) {\n            if(user[msg.sender].songsOwned[i] == _songId) {\n                f = 1;\n                break;\n            }\n            }\n        if(f==1){\n            return true;\n        }\n        else {\n            return false;\n        }\n    }\n\n    function getSongStoreDetails(uint _songID) public view validUser(msg.sender) returns(string, string, string, uint) {\n        return (song[_songID].name, song[_songID].songArtHash, artist[artistOf[_songID]].name, song[_songID].priceInD); \n    }\n    //TODO:upgrade logic\n    //TODO: Self destruct\n    function () payable public {\n    }\n\n    function getTotalArtists() public view returns(uint) {\n        return artists;\n    }\n    function getTotalSongs() public view returns (uint) {\n        return (songs-1);\n    }\n    function userValidityCheck() public view validUser(msg.sender) returns(bool) {\n        if(user[msg.sender].userID >= 0 && user[msg.sender].userID < users) {\n            return true;\n        }       \n        else {\n            return false;\n        }\n    }\n    function getArtistIdBySongId(uint songId) public view returns(uint) {\n        return artist[artistOf[songId]].id;\n    }\n    function getArtistDetailsByAddress(address adr) public view returns (string, uint) {\n        return (artist[adr].name, artist[adr].id);\n    }\n\n}",
  "sourcePath": "/Users/siddharthbarpanda/Desktop/spodify-v1/contracts/musicApp.sol",
  "compiler": {
    "name": "solc",
    "version": "0.4.24+commit.e67f0147.Emscripten.clang"
  },
  "schemaVersion": "2.0.1",
  "updatedAt": "2018-08-25T13:05:51.404Z"
}